{
  "_format": "hh-sol-artifact-1",
  "contractName": "SpaceICO",
  "sourceName": "contracts/SpaceICO.sol",
  "abi": [
    {
      "inputs": [
        {
          "internalType": "address",
          "name": "_lPool",
          "type": "address"
        },
        {
          "internalType": "address",
          "name": "_treasury",
          "type": "address"
        }
      ],
      "stateMutability": "nonpayable",
      "type": "constructor"
    },
    {
      "anonymous": false,
      "inputs": [
        {
          "indexed": true,
          "internalType": "address",
          "name": "contributor",
          "type": "address"
        },
        {
          "indexed": true,
          "internalType": "enum SpaceICO.Phase",
          "name": "phase",
          "type": "uint8"
        },
        {
          "indexed": false,
          "internalType": "uint256",
          "name": "eth",
          "type": "uint256"
        }
      ],
      "name": "Contribute",
      "type": "event"
    },
    {
      "anonymous": false,
      "inputs": [
        {
          "indexed": true,
          "internalType": "address",
          "name": "previousOwner",
          "type": "address"
        },
        {
          "indexed": true,
          "internalType": "address",
          "name": "newOwner",
          "type": "address"
        }
      ],
      "name": "OwnershipTransferred",
      "type": "event"
    },
    {
      "anonymous": false,
      "inputs": [
        {
          "indexed": false,
          "internalType": "address",
          "name": "account",
          "type": "address"
        }
      ],
      "name": "Paused",
      "type": "event"
    },
    {
      "anonymous": false,
      "inputs": [
        {
          "indexed": false,
          "internalType": "enum SpaceICO.Phase",
          "name": "phase",
          "type": "uint8"
        }
      ],
      "name": "PhaseChange",
      "type": "event"
    },
    {
      "anonymous": false,
      "inputs": [
        {
          "indexed": true,
          "internalType": "address",
          "name": "contributor",
          "type": "address"
        },
        {
          "indexed": false,
          "internalType": "uint256",
          "name": "tokens",
          "type": "uint256"
        }
      ],
      "name": "Redeem",
      "type": "event"
    },
    {
      "anonymous": false,
      "inputs": [
        {
          "indexed": false,
          "internalType": "address",
          "name": "account",
          "type": "address"
        }
      ],
      "name": "Unpaused",
      "type": "event"
    },
    {
      "inputs": [],
      "name": "GENERAL_IND_LIMIT",
      "outputs": [
        {
          "internalType": "uint256",
          "name": "",
          "type": "uint256"
        }
      ],
      "stateMutability": "view",
      "type": "function"
    },
    {
      "inputs": [],
      "name": "GENERAL_LIMIT",
      "outputs": [
        {
          "internalType": "uint256",
          "name": "",
          "type": "uint256"
        }
      ],
      "stateMutability": "view",
      "type": "function"
    },
    {
      "inputs": [],
      "name": "ICO_EXCHANGE_RATE",
      "outputs": [
        {
          "internalType": "uint256",
          "name": "",
          "type": "uint256"
        }
      ],
      "stateMutability": "view",
      "type": "function"
    },
    {
      "inputs": [],
      "name": "SEED_IND_LIMIT",
      "outputs": [
        {
          "internalType": "uint256",
          "name": "",
          "type": "uint256"
        }
      ],
      "stateMutability": "view",
      "type": "function"
    },
    {
      "inputs": [],
      "name": "SEED_LIMIT",
      "outputs": [
        {
          "internalType": "uint256",
          "name": "",
          "type": "uint256"
        }
      ],
      "stateMutability": "view",
      "type": "function"
    },
    {
      "inputs": [],
      "name": "availableForMeToContribute",
      "outputs": [
        {
          "internalType": "uint256",
          "name": "",
          "type": "uint256"
        }
      ],
      "stateMutability": "view",
      "type": "function"
    },
    {
      "inputs": [
        {
          "internalType": "address",
          "name": "user",
          "type": "address"
        }
      ],
      "name": "availableToContribute",
      "outputs": [
        {
          "internalType": "uint256",
          "name": "",
          "type": "uint256"
        }
      ],
      "stateMutability": "view",
      "type": "function"
    },
    {
      "inputs": [],
      "name": "contribute",
      "outputs": [],
      "stateMutability": "payable",
      "type": "function"
    },
    {
      "inputs": [],
      "name": "fundingCapacity",
      "outputs": [
        {
          "internalType": "uint256",
          "name": "",
          "type": "uint256"
        }
      ],
      "stateMutability": "view",
      "type": "function"
    },
    {
      "inputs": [],
      "name": "owner",
      "outputs": [
        {
          "internalType": "address",
          "name": "",
          "type": "address"
        }
      ],
      "stateMutability": "view",
      "type": "function"
    },
    {
      "inputs": [],
      "name": "paused",
      "outputs": [
        {
          "internalType": "bool",
          "name": "",
          "type": "bool"
        }
      ],
      "stateMutability": "view",
      "type": "function"
    },
    {
      "inputs": [],
      "name": "phase",
      "outputs": [
        {
          "internalType": "enum SpaceICO.Phase",
          "name": "",
          "type": "uint8"
        }
      ],
      "stateMutability": "view",
      "type": "function"
    },
    {
      "inputs": [],
      "name": "redeem",
      "outputs": [],
      "stateMutability": "nonpayable",
      "type": "function"
    },
    {
      "inputs": [],
      "name": "renounceOwnership",
      "outputs": [],
      "stateMutability": "nonpayable",
      "type": "function"
    },
    {
      "inputs": [
        {
          "internalType": "contract SpaceCoin",
          "name": "_spaceCoin",
          "type": "address"
        }
      ],
      "name": "setSpaceCoinAddress",
      "outputs": [],
      "stateMutability": "nonpayable",
      "type": "function"
    },
    {
      "inputs": [
        {
          "internalType": "contract SpaceRouter",
          "name": "_sr",
          "type": "address"
        }
      ],
      "name": "setSpaceRouterAddress",
      "outputs": [],
      "stateMutability": "nonpayable",
      "type": "function"
    },
    {
      "inputs": [],
      "name": "toGeneral",
      "outputs": [],
      "stateMutability": "nonpayable",
      "type": "function"
    },
    {
      "inputs": [],
      "name": "toOpen",
      "outputs": [],
      "stateMutability": "nonpayable",
      "type": "function"
    },
    {
      "inputs": [
        {
          "internalType": "address[]",
          "name": "addresses",
          "type": "address[]"
        },
        {
          "internalType": "bool",
          "name": "toggle",
          "type": "bool"
        }
      ],
      "name": "toggleSeedInvestors",
      "outputs": [],
      "stateMutability": "nonpayable",
      "type": "function"
    },
    {
      "inputs": [],
      "name": "totalContributed",
      "outputs": [
        {
          "internalType": "uint256",
          "name": "",
          "type": "uint256"
        }
      ],
      "stateMutability": "view",
      "type": "function"
    },
    {
      "inputs": [
        {
          "internalType": "address",
          "name": "newOwner",
          "type": "address"
        }
      ],
      "name": "transferOwnership",
      "outputs": [],
      "stateMutability": "nonpayable",
      "type": "function"
    },
    {
      "inputs": [],
      "name": "treasuryWithdraw",
      "outputs": [],
      "stateMutability": "nonpayable",
      "type": "function"
    },
    {
      "inputs": [],
      "name": "withdrawToPool",
      "outputs": [],
      "stateMutability": "nonpayable",
      "type": "function"
    },
    {
      "stateMutability": "payable",
      "type": "receive"
    }
  ],
  "bytecode": "0x60806040523480156200001157600080fd5b50604051620027af380380620027af8339818101604052810190620000379190620001de565b620000576200004b620000fb60201b60201c565b6200010360201b60201c565b60008060146101000a81548160ff02191690831515021790555081600360006101000a81548173ffffffffffffffffffffffffffffffffffffffff021916908373ffffffffffffffffffffffffffffffffffffffff16021790555080600460006101000a81548173ffffffffffffffffffffffffffffffffffffffff021916908373ffffffffffffffffffffffffffffffffffffffff16021790555050506200026d565b600033905090565b60008060009054906101000a900473ffffffffffffffffffffffffffffffffffffffff169050816000806101000a81548173ffffffffffffffffffffffffffffffffffffffff021916908373ffffffffffffffffffffffffffffffffffffffff1602179055508173ffffffffffffffffffffffffffffffffffffffff168173ffffffffffffffffffffffffffffffffffffffff167f8be0079c531659141344cd1fd0a4f28419497f9722a3daafe3b4186f6b6457e060405160405180910390a35050565b600081519050620001d88162000253565b92915050565b60008060408385031215620001f257600080fd5b60006200020285828601620001c7565b92505060206200021585828601620001c7565b9150509250929050565b60006200022c8262000233565b9050919050565b600073ffffffffffffffffffffffffffffffffffffffff82169050919050565b6200025e816200021f565b81146200026a57600080fd5b50565b612532806200027d6000396000f3fe6080604052600436106101435760003560e01c80635325d806116100b6578063b1c9fe6e1161006f578063b1c9fe6e146103d4578063be040fb0146103ff578063d45d294114610416578063d6aafade14610441578063d7bb99ba1461046a578063f2fde38b146104745761014a565b80635325d806146102fc57806357bca42d146103255780635c975abb1461033c578063715018a6146103675780638da5cb5b1461037e578063921897c5146103a95761014a565b806328e6b9691161010857806328e6b969146101fc5780633b91eb68146102275780633be62d66146102645780634d3ef5871461028f5780634f8fea14146102ba57806352a30140146102d15761014a565b8062148a691461014f578063023f41471461017a57806308ba04d3146101a5578063166cca8d146101ce5780631c50c98b146101e55761014a565b3661014a57005b600080fd5b34801561015b57600080fd5b5061016461049d565b60405161017191906121b0565b60405180910390f35b34801561018657600080fd5b5061018f6104a2565b60405161019c91906121b0565b60405180910390f35b3480156101b157600080fd5b506101cc60048036038101906101c79190611c72565b6104a8565b005b3480156101da57600080fd5b506101e36105ef565b005b3480156101f157600080fd5b506101fa6108ff565b005b34801561020857600080fd5b50610211610a90565b60405161021e91906121b0565b60405180910390f35b34801561023357600080fd5b5061024e60048036038101906102499190611c49565b610a9e565b60405161025b91906121b0565b60405180910390f35b34801561027057600080fd5b50610279610ce0565b60405161028691906121b0565b60405180910390f35b34801561029b57600080fd5b506102a4610f05565b6040516102b191906121b0565b60405180910390f35b3480156102c657600080fd5b506102cf610f15565b005b3480156102dd57600080fd5b506102e66110a6565b6040516102f391906121b0565b60405180910390f35b34801561030857600080fd5b50610323600480360381019061031e9190611cf3565b6110b3565b005b34801561033157600080fd5b5061033a611188565b005b34801561034857600080fd5b506103516112e9565b60405161035e919061207a565b60405180910390f35b34801561037357600080fd5b5061037c6112ff565b005b34801561038a57600080fd5b50610393611387565b6040516103a09190611fff565b60405180910390f35b3480156103b557600080fd5b506103be6113b0565b6040516103cb91906121b0565b60405180910390f35b3480156103e057600080fd5b506103e96113be565b6040516103f69190612095565b60405180910390f35b34801561040b57600080fd5b506104146113d1565b005b34801561042257600080fd5b5061042b61165c565b60405161043891906121b0565b60405180910390f35b34801561044d57600080fd5b5061046860048036038101906104639190611d1c565b611669565b005b61047261173e565b005b34801561048057600080fd5b5061049b60048036038101906104969190611c49565b6119a4565b005b600581565b60055481565b6104b0611a9c565b73ffffffffffffffffffffffffffffffffffffffff166104ce611387565b73ffffffffffffffffffffffffffffffffffffffff1614610524576040517f08c379a000000000000000000000000000000000000000000000000000000000815260040161051b90612150565b60405180910390fd5b60005b838390508110156105e9578160076000868685818110610570577f4e487b7100000000000000000000000000000000000000000000000000000000600052603260045260246000fd5b90506020020160208101906105859190611c49565b73ffffffffffffffffffffffffffffffffffffffff1673ffffffffffffffffffffffffffffffffffffffff16815260200190815260200160002060006101000a81548160ff02191690831515021790555080806105e19061239f565b915050610527565b50505050565b6105f7611a9c565b73ffffffffffffffffffffffffffffffffffffffff16610615611387565b73ffffffffffffffffffffffffffffffffffffffff161461066b576040517f08c379a000000000000000000000000000000000000000000000000000000000815260040161066290612150565b60405180910390fd5b60006005805461067b919061226e565b9050600160009054906101000a900473ffffffffffffffffffffffffffffffffffffffff1673ffffffffffffffffffffffffffffffffffffffff1663095ea7b3600260009054906101000a900473ffffffffffffffffffffffffffffffffffffffff16836040518363ffffffff1660e01b81526004016106fc92919061201a565b602060405180830381600087803b15801561071657600080fd5b505af115801561072a573d6000803e3d6000fd5b505050506040513d601f19601f8201168201806040525081019061074e9190611cca565b506000600260009054906101000a900473ffffffffffffffffffffffffffffffffffffffff1673ffffffffffffffffffffffffffffffffffffffff16631b879378600554600160009054906101000a900473ffffffffffffffffffffffffffffffffffffffff1685306040518563ffffffff1660e01b81526004016107d593929190612043565b6020604051808303818588803b1580156107ee57600080fd5b505af1158015610802573d6000803e3d6000fd5b50505050506040513d601f19601f820116820180604052508101906108279190611d45565b9050600360009054906101000a900473ffffffffffffffffffffffffffffffffffffffff1673ffffffffffffffffffffffffffffffffffffffff1663095ea7b3600260009054906101000a900473ffffffffffffffffffffffffffffffffffffffff16836040518363ffffffff1660e01b81526004016108a892919061201a565b602060405180830381600087803b1580156108c257600080fd5b505af11580156108d6573d6000803e3d6000fd5b505050506040513d601f19601f820116820180604052508101906108fa9190611cca565b505050565b610907611a9c565b73ffffffffffffffffffffffffffffffffffffffff16610925611387565b73ffffffffffffffffffffffffffffffffffffffff161461097b576040517f08c379a000000000000000000000000000000000000000000000000000000000815260040161097290612150565b60405180910390fd5b600160028111156109b5577f4e487b7100000000000000000000000000000000000000000000000000000000600052602160045260246000fd5b600460149054906101000a900460ff1660028111156109fd577f4e487b7100000000000000000000000000000000000000000000000000000000600052602160045260246000fd5b14610a3d576040517f08c379a0000000000000000000000000000000000000000000000000000000008152600401610a3490612110565b60405180910390fd5b6002600460146101000a81548160ff02191690836002811115610a89577f4e487b7100000000000000000000000000000000000000000000000000000000600052602160045260246000fd5b0217905550565b69065a4da25d3016c0000081565b600080600660008473ffffffffffffffffffffffffffffffffffffffff1673ffffffffffffffffffffffffffffffffffffffff1681526020019081526020016000205490506000610aed610ce0565b905060006002811115610b29577f4e487b7100000000000000000000000000000000000000000000000000000000600052602160045260246000fd5b600460149054906101000a900460ff166002811115610b71577f4e487b7100000000000000000000000000000000000000000000000000000000600052602160045260246000fd5b1415610c1057600760003373ffffffffffffffffffffffffffffffffffffffff1673ffffffffffffffffffffffffffffffffffffffff16815260200190815260200160002060009054906101000a900460ff16610bd357600092505050610cdb565b6000610be882685150ae84a8cdf00000611aa4565b905080831015610c03578281610bfe91906122c8565b610c06565b60005b9350505050610cdb565b60016002811115610c4a577f4e487b7100000000000000000000000000000000000000000000000000000000600052602160045260246000fd5b600460149054906101000a900460ff166002811115610c92577f4e487b7100000000000000000000000000000000000000000000000000000000600052602160045260246000fd5b1415610cd5576000610cad8268056bc75e2d63100000611aa4565b905080831015610cc8578281610cc391906122c8565b610ccb565b60005b9350505050610cdb565b80925050505b919050565b6000806002811115610d1b577f4e487b7100000000000000000000000000000000000000000000000000000000600052602160045260246000fd5b600460149054906101000a900460ff166002811115610d63577f4e487b7100000000000000000000000000000000000000000000000000000000600052602160045260246000fd5b1415610d885760055469032d26d12e980b600000610d8191906122c8565b9050610f02565b60016002811115610dc2577f4e487b7100000000000000000000000000000000000000000000000000000000600052602160045260246000fd5b600460149054906101000a900460ff166002811115610e0a577f4e487b7100000000000000000000000000000000000000000000000000000000600052602160045260246000fd5b1415610e2f5760055469065a4da25d3016c00000610e2891906122c8565b9050610f02565b60055460056002600160009054906101000a900473ffffffffffffffffffffffffffffffffffffffff1673ffffffffffffffffffffffffffffffffffffffff166370a08231306040518263ffffffff1660e01b8152600401610e919190611fff565b60206040518083038186803b158015610ea957600080fd5b505afa158015610ebd573d6000803e3d6000fd5b505050506040513d601f19601f82011682018060405250810190610ee19190611d45565b610eeb919061223d565b610ef5919061223d565b610eff91906122c8565b90505b90565b6000610f1033610a9e565b905090565b610f1d611a9c565b73ffffffffffffffffffffffffffffffffffffffff16610f3b611387565b73ffffffffffffffffffffffffffffffffffffffff1614610f91576040517f08c379a0000000000000000000000000000000000000000000000000000000008152600401610f8890612150565b60405180910390fd5b60006002811115610fcb577f4e487b7100000000000000000000000000000000000000000000000000000000600052602160045260246000fd5b600460149054906101000a900460ff166002811115611013577f4e487b7100000000000000000000000000000000000000000000000000000000600052602160045260246000fd5b14611053576040517f08c379a000000000000000000000000000000000000000000000000000000000815260040161104a90612110565b60405180910390fd5b6001600460146101000a81548160ff0219169083600281111561109f577f4e487b7100000000000000000000000000000000000000000000000000000000600052602160045260246000fd5b0217905550565b685150ae84a8cdf0000081565b600073ffffffffffffffffffffffffffffffffffffffff16600160009054906101000a900473ffffffffffffffffffffffffffffffffffffffff1673ffffffffffffffffffffffffffffffffffffffff1614611144576040517f08c379a000000000000000000000000000000000000000000000000000000000815260040161113b90612190565b60405180910390fd5b80600160006101000a81548173ffffffffffffffffffffffffffffffffffffffff021916908373ffffffffffffffffffffffffffffffffffffffff16021790555050565b600460009054906101000a900473ffffffffffffffffffffffffffffffffffffffff1673ffffffffffffffffffffffffffffffffffffffff163373ffffffffffffffffffffffffffffffffffffffff1614611218576040517f08c379a000000000000000000000000000000000000000000000000000000000815260040161120f906120d0565b60405180910390fd5b6000600460009054906101000a900473ffffffffffffffffffffffffffffffffffffffff1673ffffffffffffffffffffffffffffffffffffffff164760405161126090611fea565b60006040518083038185875af1925050503d806000811461129d576040519150601f19603f3d011682016040523d82523d6000602084013e6112a2565b606091505b50509050806112e6576040517f08c379a00000000000000000000000000000000000000000000000000000000081526004016112dd906120f0565b60405180910390fd5b50565b60008060149054906101000a900460ff16905090565b611307611a9c565b73ffffffffffffffffffffffffffffffffffffffff16611325611387565b73ffffffffffffffffffffffffffffffffffffffff161461137b576040517f08c379a000000000000000000000000000000000000000000000000000000000815260040161137290612150565b60405180910390fd5b6113856000611abd565b565b60008060009054906101000a900473ffffffffffffffffffffffffffffffffffffffff16905090565b69032d26d12e980b60000081565b600460149054906101000a900460ff1681565b60028081111561140a577f4e487b7100000000000000000000000000000000000000000000000000000000600052602160045260246000fd5b600460149054906101000a900460ff166002811115611452577f4e487b7100000000000000000000000000000000000000000000000000000000600052602160045260246000fd5b14611492576040517f08c379a0000000000000000000000000000000000000000000000000000000008152600401611489906120d0565b60405180910390fd5b6000600660003373ffffffffffffffffffffffffffffffffffffffff1673ffffffffffffffffffffffffffffffffffffffff1681526020019081526020016000205411611514576040517f08c379a000000000000000000000000000000000000000000000000000000000815260040161150b90612130565b60405180910390fd5b60006005600660003373ffffffffffffffffffffffffffffffffffffffff1673ffffffffffffffffffffffffffffffffffffffff16815260200190815260200160002054611562919061226e565b90506000600660003373ffffffffffffffffffffffffffffffffffffffff1673ffffffffffffffffffffffffffffffffffffffff16815260200190815260200160002081905550600160009054906101000a900473ffffffffffffffffffffffffffffffffffffffff1673ffffffffffffffffffffffffffffffffffffffff1663a9059cbb33836040518363ffffffff1660e01b815260040161160692919061201a565b602060405180830381600087803b15801561162057600080fd5b505af1158015611634573d6000803e3d6000fd5b505050506040513d601f19601f820116820180604052508101906116589190611cca565b5050565b68056bc75e2d6310000081565b600073ffffffffffffffffffffffffffffffffffffffff16600260009054906101000a900473ffffffffffffffffffffffffffffffffffffffff1673ffffffffffffffffffffffffffffffffffffffff16146116fa576040517f08c379a00000000000000000000000000000000000000000000000000000000081526004016116f190612190565b60405180910390fd5b80600260006101000a81548173ffffffffffffffffffffffffffffffffffffffff021916908373ffffffffffffffffffffffffffffffffffffffff16021790555050565b60006002811115611778577f4e487b7100000000000000000000000000000000000000000000000000000000600052602160045260246000fd5b600460149054906101000a900460ff1660028111156117c0577f4e487b7100000000000000000000000000000000000000000000000000000000600052602160045260246000fd5b141561185357600760003373ffffffffffffffffffffffffffffffffffffffff1673ffffffffffffffffffffffffffffffffffffffff16815260200190815260200160002060009054906101000a900460ff16611852576040517f08c379a0000000000000000000000000000000000000000000000000000000008152600401611849906120d0565b60405180910390fd5b5b600061185d610f05565b9050803411156118a2576040517f08c379a000000000000000000000000000000000000000000000000000000000815260040161189990612170565b60405180910390fd5b34600560008282546118b491906121e7565b9250508190555034600660003373ffffffffffffffffffffffffffffffffffffffff1673ffffffffffffffffffffffffffffffffffffffff168152602001908152602001600020600082825461190a91906121e7565b9250508190555060028081111561194a577f4e487b7100000000000000000000000000000000000000000000000000000000600052602160045260246000fd5b600460149054906101000a900460ff166002811115611992577f4e487b7100000000000000000000000000000000000000000000000000000000600052602160045260246000fd5b14156119a1576119a06113d1565b5b50565b6119ac611a9c565b73ffffffffffffffffffffffffffffffffffffffff166119ca611387565b73ffffffffffffffffffffffffffffffffffffffff1614611a20576040517f08c379a0000000000000000000000000000000000000000000000000000000008152600401611a1790612150565b60405180910390fd5b600073ffffffffffffffffffffffffffffffffffffffff168173ffffffffffffffffffffffffffffffffffffffff161415611a90576040517f08c379a0000000000000000000000000000000000000000000000000000000008152600401611a87906120b0565b60405180910390fd5b611a9981611abd565b50565b600033905090565b6000818310611ab35781611ab5565b825b905092915050565b60008060009054906101000a900473ffffffffffffffffffffffffffffffffffffffff169050816000806101000a81548173ffffffffffffffffffffffffffffffffffffffff021916908373ffffffffffffffffffffffffffffffffffffffff1602179055508173ffffffffffffffffffffffffffffffffffffffff168173ffffffffffffffffffffffffffffffffffffffff167f8be0079c531659141344cd1fd0a4f28419497f9722a3daafe3b4186f6b6457e060405160405180910390a35050565b600081359050611b9081612489565b92915050565b60008083601f840112611ba857600080fd5b8235905067ffffffffffffffff811115611bc157600080fd5b602083019150836020820283011115611bd957600080fd5b9250929050565b600081359050611bef816124a0565b92915050565b600081519050611c04816124a0565b92915050565b600081359050611c19816124b7565b92915050565b600081359050611c2e816124ce565b92915050565b600081519050611c43816124e5565b92915050565b600060208284031215611c5b57600080fd5b6000611c6984828501611b81565b91505092915050565b600080600060408486031215611c8757600080fd5b600084013567ffffffffffffffff811115611ca157600080fd5b611cad86828701611b96565b93509350506020611cc086828701611be0565b9150509250925092565b600060208284031215611cdc57600080fd5b6000611cea84828501611bf5565b91505092915050565b600060208284031215611d0557600080fd5b6000611d1384828501611c0a565b91505092915050565b600060208284031215611d2e57600080fd5b6000611d3c84828501611c1f565b91505092915050565b600060208284031215611d5757600080fd5b6000611d6584828501611c34565b91505092915050565b611d77816122fc565b82525050565b611d8681612320565b82525050565b611d958161238d565b82525050565b6000611da86026836121d6565b91507f4f776e61626c653a206e6577206f776e657220697320746865207a65726f206160008301527f64647265737300000000000000000000000000000000000000000000000000006020830152604082019050919050565b6000611e0e600c836121d6565b91507f554e415554484f52495a454400000000000000000000000000000000000000006000830152602082019050919050565b6000611e4e600f836121d6565b91507f57495448445241575f4641494c454400000000000000000000000000000000006000830152602082019050919050565b6000611e8e600d836121d6565b91507f494e56414c49445f5048415345000000000000000000000000000000000000006000830152602082019050919050565b6000611ece6008836121d6565b91507f4e4f5f46554e44530000000000000000000000000000000000000000000000006000830152602082019050919050565b6000611f0e6020836121d6565b91507f4f776e61626c653a2063616c6c6572206973206e6f7420746865206f776e65726000830152602082019050919050565b6000611f4e600a836121d6565b91507f4f5645525f4c494d4954000000000000000000000000000000000000000000006000830152602082019050919050565b6000611f8e600a836121d6565b91507f57524954455f4f4e4345000000000000000000000000000000000000000000006000830152602082019050919050565b6000611fce6000836121cb565b9150600082019050919050565b611fe481612383565b82525050565b6000611ff582611fc1565b9150819050919050565b60006020820190506120146000830184611d6e565b92915050565b600060408201905061202f6000830185611d6e565b61203c6020830184611fdb565b9392505050565b60006060820190506120586000830186611d6e565b6120656020830185611fdb565b6120726040830184611d6e565b949350505050565b600060208201905061208f6000830184611d7d565b92915050565b60006020820190506120aa6000830184611d8c565b92915050565b600060208201905081810360008301526120c981611d9b565b9050919050565b600060208201905081810360008301526120e981611e01565b9050919050565b6000602082019050818103600083015261210981611e41565b9050919050565b6000602082019050818103600083015261212981611e81565b9050919050565b6000602082019050818103600083015261214981611ec1565b9050919050565b6000602082019050818103600083015261216981611f01565b9050919050565b6000602082019050818103600083015261218981611f41565b9050919050565b600060208201905081810360008301526121a981611f81565b9050919050565b60006020820190506121c56000830184611fdb565b92915050565b600081905092915050565b600082825260208201905092915050565b60006121f282612383565b91506121fd83612383565b9250827fffffffffffffffffffffffffffffffffffffffffffffffffffffffffffffffff03821115612232576122316123e8565b5b828201905092915050565b600061224882612383565b915061225383612383565b92508261226357612262612417565b5b828204905092915050565b600061227982612383565b915061228483612383565b9250817fffffffffffffffffffffffffffffffffffffffffffffffffffffffffffffffff04831182151516156122bd576122bc6123e8565b5b828202905092915050565b60006122d382612383565b91506122de83612383565b9250828210156122f1576122f06123e8565b5b828203905092915050565b600061230782612363565b9050919050565b600061231982612363565b9050919050565b60008115159050919050565b6000612337826122fc565b9050919050565b60006123498261230e565b9050919050565b600081905061235e82612475565b919050565b600073ffffffffffffffffffffffffffffffffffffffff82169050919050565b6000819050919050565b600061239882612350565b9050919050565b60006123aa82612383565b91507fffffffffffffffffffffffffffffffffffffffffffffffffffffffffffffffff8214156123dd576123dc6123e8565b5b600182019050919050565b7f4e487b7100000000000000000000000000000000000000000000000000000000600052601160045260246000fd5b7f4e487b7100000000000000000000000000000000000000000000000000000000600052601260045260246000fd5b7f4e487b7100000000000000000000000000000000000000000000000000000000600052602160045260246000fd5b6003811061248657612485612446565b5b50565b612492816122fc565b811461249d57600080fd5b50565b6124a981612320565b81146124b457600080fd5b50565b6124c08161232c565b81146124cb57600080fd5b50565b6124d78161233e565b81146124e257600080fd5b50565b6124ee81612383565b81146124f957600080fd5b5056fea2646970667358221220e98f491c900960a9b8b0e33cfc365b56135db5ab22e6c8c96b81830796c5f16464736f6c63430008000033",
  "linkReferences": {},
  "deployedLinkReferences": {}
}