{
  "_format": "hh-sol-artifact-1",
  "contractName": "SpaceICO",
  "sourceName": "contracts/SpaceICO.sol",
  "abi": [
    {
      "inputs": [
        {
          "internalType": "address",
          "name": "_lPool",
          "type": "address"
        },
        {
          "internalType": "address",
          "name": "_treasury",
          "type": "address"
        }
      ],
      "stateMutability": "nonpayable",
      "type": "constructor"
    },
    {
      "anonymous": false,
      "inputs": [
        {
          "indexed": true,
          "internalType": "address",
          "name": "contributor",
          "type": "address"
        },
        {
          "indexed": true,
          "internalType": "enum SpaceICO.Phase",
          "name": "phase",
          "type": "uint8"
        },
        {
          "indexed": false,
          "internalType": "uint256",
          "name": "eth",
          "type": "uint256"
        }
      ],
      "name": "Contribute",
      "type": "event"
    },
    {
      "anonymous": false,
      "inputs": [
        {
          "indexed": true,
          "internalType": "address",
          "name": "previousOwner",
          "type": "address"
        },
        {
          "indexed": true,
          "internalType": "address",
          "name": "newOwner",
          "type": "address"
        }
      ],
      "name": "OwnershipTransferred",
      "type": "event"
    },
    {
      "anonymous": false,
      "inputs": [
        {
          "indexed": false,
          "internalType": "address",
          "name": "account",
          "type": "address"
        }
      ],
      "name": "Paused",
      "type": "event"
    },
    {
      "anonymous": false,
      "inputs": [
        {
          "indexed": false,
          "internalType": "enum SpaceICO.Phase",
          "name": "phase",
          "type": "uint8"
        }
      ],
      "name": "PhaseChange",
      "type": "event"
    },
    {
      "anonymous": false,
      "inputs": [
        {
          "indexed": true,
          "internalType": "address",
          "name": "contributor",
          "type": "address"
        },
        {
          "indexed": false,
          "internalType": "uint256",
          "name": "tokens",
          "type": "uint256"
        }
      ],
      "name": "Redeem",
      "type": "event"
    },
    {
      "anonymous": false,
      "inputs": [
        {
          "indexed": false,
          "internalType": "address",
          "name": "account",
          "type": "address"
        }
      ],
      "name": "Unpaused",
      "type": "event"
    },
    {
      "inputs": [],
      "name": "GENERAL_IND_LIMIT",
      "outputs": [
        {
          "internalType": "uint256",
          "name": "",
          "type": "uint256"
        }
      ],
      "stateMutability": "view",
      "type": "function"
    },
    {
      "inputs": [],
      "name": "GENERAL_LIMIT",
      "outputs": [
        {
          "internalType": "uint256",
          "name": "",
          "type": "uint256"
        }
      ],
      "stateMutability": "view",
      "type": "function"
    },
    {
      "inputs": [],
      "name": "ICO_EXCHANGE_RATE",
      "outputs": [
        {
          "internalType": "uint256",
          "name": "",
          "type": "uint256"
        }
      ],
      "stateMutability": "view",
      "type": "function"
    },
    {
      "inputs": [],
      "name": "SEED_IND_LIMIT",
      "outputs": [
        {
          "internalType": "uint256",
          "name": "",
          "type": "uint256"
        }
      ],
      "stateMutability": "view",
      "type": "function"
    },
    {
      "inputs": [],
      "name": "SEED_LIMIT",
      "outputs": [
        {
          "internalType": "uint256",
          "name": "",
          "type": "uint256"
        }
      ],
      "stateMutability": "view",
      "type": "function"
    },
    {
      "inputs": [],
      "name": "availableForMeToContribute",
      "outputs": [
        {
          "internalType": "uint256",
          "name": "",
          "type": "uint256"
        }
      ],
      "stateMutability": "view",
      "type": "function"
    },
    {
      "inputs": [
        {
          "internalType": "address",
          "name": "user",
          "type": "address"
        }
      ],
      "name": "availableToContribute",
      "outputs": [
        {
          "internalType": "uint256",
          "name": "",
          "type": "uint256"
        }
      ],
      "stateMutability": "view",
      "type": "function"
    },
    {
      "inputs": [],
      "name": "contribute",
      "outputs": [],
      "stateMutability": "payable",
      "type": "function"
    },
    {
      "inputs": [],
      "name": "fundingCapacity",
      "outputs": [
        {
          "internalType": "uint256",
          "name": "",
          "type": "uint256"
        }
      ],
      "stateMutability": "view",
      "type": "function"
    },
    {
      "inputs": [],
      "name": "owner",
      "outputs": [
        {
          "internalType": "address",
          "name": "",
          "type": "address"
        }
      ],
      "stateMutability": "view",
      "type": "function"
    },
    {
      "inputs": [],
      "name": "paused",
      "outputs": [
        {
          "internalType": "bool",
          "name": "",
          "type": "bool"
        }
      ],
      "stateMutability": "view",
      "type": "function"
    },
    {
      "inputs": [],
      "name": "phase",
      "outputs": [
        {
          "internalType": "enum SpaceICO.Phase",
          "name": "",
          "type": "uint8"
        }
      ],
      "stateMutability": "view",
      "type": "function"
    },
    {
      "inputs": [],
      "name": "redeem",
      "outputs": [],
      "stateMutability": "nonpayable",
      "type": "function"
    },
    {
      "inputs": [],
      "name": "renounceOwnership",
      "outputs": [],
      "stateMutability": "nonpayable",
      "type": "function"
    },
    {
      "inputs": [
        {
          "internalType": "contract SpaceCoin",
          "name": "_spaceCoin",
          "type": "address"
        }
      ],
      "name": "setSpaceCoinAddress",
      "outputs": [],
      "stateMutability": "nonpayable",
      "type": "function"
    },
    {
      "inputs": [
        {
          "internalType": "contract SpaceRouter",
          "name": "_sr",
          "type": "address"
        }
      ],
      "name": "setSpaceRouterAddress",
      "outputs": [],
      "stateMutability": "nonpayable",
      "type": "function"
    },
    {
      "inputs": [],
      "name": "toGeneral",
      "outputs": [],
      "stateMutability": "nonpayable",
      "type": "function"
    },
    {
      "inputs": [],
      "name": "toOpen",
      "outputs": [],
      "stateMutability": "nonpayable",
      "type": "function"
    },
    {
      "inputs": [
        {
          "internalType": "address[]",
          "name": "addresses",
          "type": "address[]"
        },
        {
          "internalType": "bool",
          "name": "toggle",
          "type": "bool"
        }
      ],
      "name": "toggleSeedInvestors",
      "outputs": [],
      "stateMutability": "nonpayable",
      "type": "function"
    },
    {
      "inputs": [],
      "name": "totalContributed",
      "outputs": [
        {
          "internalType": "uint256",
          "name": "",
          "type": "uint256"
        }
      ],
      "stateMutability": "view",
      "type": "function"
    },
    {
      "inputs": [
        {
          "internalType": "address",
          "name": "newOwner",
          "type": "address"
        }
      ],
      "name": "transferOwnership",
      "outputs": [],
      "stateMutability": "nonpayable",
      "type": "function"
    },
    {
      "inputs": [],
      "name": "treasuryWithdraw",
      "outputs": [],
      "stateMutability": "nonpayable",
      "type": "function"
    },
    {
      "inputs": [],
      "name": "withdrawToPool",
      "outputs": [],
      "stateMutability": "nonpayable",
      "type": "function"
    },
    {
      "stateMutability": "payable",
      "type": "receive"
    }
  ],
  "bytecode": "0x60806040523480156200001157600080fd5b50604051620027f1380380620027f18339818101604052810190620000379190620001de565b620000576200004b620000fb60201b60201c565b6200010360201b60201c565b60008060146101000a81548160ff02191690831515021790555081600360006101000a81548173ffffffffffffffffffffffffffffffffffffffff021916908373ffffffffffffffffffffffffffffffffffffffff16021790555080600460006101000a81548173ffffffffffffffffffffffffffffffffffffffff021916908373ffffffffffffffffffffffffffffffffffffffff16021790555050506200026d565b600033905090565b60008060009054906101000a900473ffffffffffffffffffffffffffffffffffffffff169050816000806101000a81548173ffffffffffffffffffffffffffffffffffffffff021916908373ffffffffffffffffffffffffffffffffffffffff1602179055508173ffffffffffffffffffffffffffffffffffffffff168173ffffffffffffffffffffffffffffffffffffffff167f8be0079c531659141344cd1fd0a4f28419497f9722a3daafe3b4186f6b6457e060405160405180910390a35050565b600081519050620001d88162000253565b92915050565b60008060408385031215620001f257600080fd5b60006200020285828601620001c7565b92505060206200021585828601620001c7565b9150509250929050565b60006200022c8262000233565b9050919050565b600073ffffffffffffffffffffffffffffffffffffffff82169050919050565b6200025e816200021f565b81146200026a57600080fd5b50565b612574806200027d6000396000f3fe6080604052600436106101435760003560e01c80635325d806116100b6578063b1c9fe6e1161006f578063b1c9fe6e146103d4578063be040fb0146103ff578063d45d294114610416578063d6aafade14610441578063d7bb99ba1461046a578063f2fde38b146104745761014a565b80635325d806146102fc57806357bca42d146103255780635c975abb1461033c578063715018a6146103675780638da5cb5b1461037e578063921897c5146103a95761014a565b806328e6b9691161010857806328e6b969146101fc5780633b91eb68146102275780633be62d66146102645780634d3ef5871461028f5780634f8fea14146102ba57806352a30140146102d15761014a565b8062148a691461014f578063023f41471461017a57806308ba04d3146101a5578063166cca8d146101ce5780631c50c98b146101e55761014a565b3661014a57005b600080fd5b34801561015b57600080fd5b5061016461049d565b60405161017191906121f2565b60405180910390f35b34801561018657600080fd5b5061018f6104a2565b60405161019c91906121f2565b60405180910390f35b3480156101b157600080fd5b506101cc60048036038101906101c79190611c65565b6104a8565b005b3480156101da57600080fd5b506101e36105ef565b005b3480156101f157600080fd5b506101fa6108fe565b005b34801561020857600080fd5b50610211610a8f565b60405161021e91906121f2565b60405180910390f35b34801561023357600080fd5b5061024e60048036038101906102499190611c3c565b610a9d565b60405161025b91906121f2565b60405180910390f35b34801561027057600080fd5b50610279610cdf565b60405161028691906121f2565b60405180910390f35b34801561029b57600080fd5b506102a4610ef8565b6040516102b191906121f2565b60405180910390f35b3480156102c657600080fd5b506102cf610f08565b005b3480156102dd57600080fd5b506102e6611099565b6040516102f391906121f2565b60405180910390f35b34801561030857600080fd5b50610323600480360381019061031e9190611ce6565b6110a6565b005b34801561033157600080fd5b5061033a61117b565b005b34801561034857600080fd5b506103516112dc565b60405161035e91906120bc565b60405180910390f35b34801561037357600080fd5b5061037c6112f2565b005b34801561038a57600080fd5b5061039361137a565b6040516103a09190612041565b60405180910390f35b3480156103b557600080fd5b506103be6113a3565b6040516103cb91906121f2565b60405180910390f35b3480156103e057600080fd5b506103e96113b1565b6040516103f691906120d7565b60405180910390f35b34801561040b57600080fd5b506104146113c4565b005b34801561042257600080fd5b5061042b61164f565b60405161043891906121f2565b60405180910390f35b34801561044d57600080fd5b5061046860048036038101906104639190611d0f565b61165c565b005b610472611731565b005b34801561048057600080fd5b5061049b60048036038101906104969190611c3c565b611997565b005b600581565b60055481565b6104b0611a8f565b73ffffffffffffffffffffffffffffffffffffffff166104ce61137a565b73ffffffffffffffffffffffffffffffffffffffff1614610524576040517f08c379a000000000000000000000000000000000000000000000000000000000815260040161051b90612192565b60405180910390fd5b60005b838390508110156105e9578160076000868685818110610570577f4e487b7100000000000000000000000000000000000000000000000000000000600052603260045260246000fd5b90506020020160208101906105859190611c3c565b73ffffffffffffffffffffffffffffffffffffffff1673ffffffffffffffffffffffffffffffffffffffff16815260200190815260200160002060006101000a81548160ff02191690831515021790555080806105e1906123e1565b915050610527565b50505050565b6105f7611a8f565b73ffffffffffffffffffffffffffffffffffffffff1661061561137a565b73ffffffffffffffffffffffffffffffffffffffff161461066b576040517f08c379a000000000000000000000000000000000000000000000000000000000815260040161066290612192565b60405180910390fd5b600060054761067a91906122b0565b9050600160009054906101000a900473ffffffffffffffffffffffffffffffffffffffff1673ffffffffffffffffffffffffffffffffffffffff1663095ea7b3600260009054906101000a900473ffffffffffffffffffffffffffffffffffffffff16836040518363ffffffff1660e01b81526004016106fb92919061205c565b602060405180830381600087803b15801561071557600080fd5b505af1158015610729573d6000803e3d6000fd5b505050506040513d601f19601f8201168201806040525081019061074d9190611cbd565b506000600260009054906101000a900473ffffffffffffffffffffffffffffffffffffffff1673ffffffffffffffffffffffffffffffffffffffff16631b87937847600160009054906101000a900473ffffffffffffffffffffffffffffffffffffffff1685306040518563ffffffff1660e01b81526004016107d293929190612085565b6060604051808303818588803b1580156107eb57600080fd5b505af11580156107ff573d6000803e3d6000fd5b50505050506040513d601f19601f820116820180604052508101906108249190611d61565b92505050600360009054906101000a900473ffffffffffffffffffffffffffffffffffffffff1673ffffffffffffffffffffffffffffffffffffffff1663095ea7b3600260009054906101000a900473ffffffffffffffffffffffffffffffffffffffff16836040518363ffffffff1660e01b81526004016108a792919061205c565b602060405180830381600087803b1580156108c157600080fd5b505af11580156108d5573d6000803e3d6000fd5b505050506040513d601f19601f820116820180604052508101906108f99190611cbd565b505050565b610906611a8f565b73ffffffffffffffffffffffffffffffffffffffff1661092461137a565b73ffffffffffffffffffffffffffffffffffffffff161461097a576040517f08c379a000000000000000000000000000000000000000000000000000000000815260040161097190612192565b60405180910390fd5b600160028111156109b4577f4e487b7100000000000000000000000000000000000000000000000000000000600052602160045260246000fd5b600460149054906101000a900460ff1660028111156109fc577f4e487b7100000000000000000000000000000000000000000000000000000000600052602160045260246000fd5b14610a3c576040517f08c379a0000000000000000000000000000000000000000000000000000000008152600401610a3390612152565b60405180910390fd5b6002600460146101000a81548160ff02191690836002811115610a88577f4e487b7100000000000000000000000000000000000000000000000000000000600052602160045260246000fd5b0217905550565b69065a4da25d3016c0000081565b600080600660008473ffffffffffffffffffffffffffffffffffffffff1673ffffffffffffffffffffffffffffffffffffffff1681526020019081526020016000205490506000610aec610cdf565b905060006002811115610b28577f4e487b7100000000000000000000000000000000000000000000000000000000600052602160045260246000fd5b600460149054906101000a900460ff166002811115610b70577f4e487b7100000000000000000000000000000000000000000000000000000000600052602160045260246000fd5b1415610c0f57600760003373ffffffffffffffffffffffffffffffffffffffff1673ffffffffffffffffffffffffffffffffffffffff16815260200190815260200160002060009054906101000a900460ff16610bd257600092505050610cda565b6000610be782685150ae84a8cdf00000611a97565b905080831015610c02578281610bfd919061230a565b610c05565b60005b9350505050610cda565b60016002811115610c49577f4e487b7100000000000000000000000000000000000000000000000000000000600052602160045260246000fd5b600460149054906101000a900460ff166002811115610c91577f4e487b7100000000000000000000000000000000000000000000000000000000600052602160045260246000fd5b1415610cd4576000610cac8268056bc75e2d63100000611a97565b905080831015610cc7578281610cc2919061230a565b610cca565b60005b9350505050610cda565b80925050505b919050565b6000806002811115610d1a577f4e487b7100000000000000000000000000000000000000000000000000000000600052602160045260246000fd5b600460149054906101000a900460ff166002811115610d62577f4e487b7100000000000000000000000000000000000000000000000000000000600052602160045260246000fd5b1415610d875760055469032d26d12e980b600000610d80919061230a565b9050610ef5565b60016002811115610dc1577f4e487b7100000000000000000000000000000000000000000000000000000000600052602160045260246000fd5b600460149054906101000a900460ff166002811115610e09577f4e487b7100000000000000000000000000000000000000000000000000000000600052602160045260246000fd5b1415610e2e5760055469065a4da25d3016c00000610e27919061230a565b9050610ef5565b6005546005600160009054906101000a900473ffffffffffffffffffffffffffffffffffffffff1673ffffffffffffffffffffffffffffffffffffffff166370a08231306040518263ffffffff1660e01b8152600401610e8e9190612041565b60206040518083038186803b158015610ea657600080fd5b505afa158015610eba573d6000803e3d6000fd5b505050506040513d601f19601f82011682018060405250810190610ede9190611d38565b610ee8919061227f565b610ef2919061230a565b90505b90565b6000610f0333610a9d565b905090565b610f10611a8f565b73ffffffffffffffffffffffffffffffffffffffff16610f2e61137a565b73ffffffffffffffffffffffffffffffffffffffff1614610f84576040517f08c379a0000000000000000000000000000000000000000000000000000000008152600401610f7b90612192565b60405180910390fd5b60006002811115610fbe577f4e487b7100000000000000000000000000000000000000000000000000000000600052602160045260246000fd5b600460149054906101000a900460ff166002811115611006577f4e487b7100000000000000000000000000000000000000000000000000000000600052602160045260246000fd5b14611046576040517f08c379a000000000000000000000000000000000000000000000000000000000815260040161103d90612152565b60405180910390fd5b6001600460146101000a81548160ff02191690836002811115611092577f4e487b7100000000000000000000000000000000000000000000000000000000600052602160045260246000fd5b0217905550565b685150ae84a8cdf0000081565b600073ffffffffffffffffffffffffffffffffffffffff16600160009054906101000a900473ffffffffffffffffffffffffffffffffffffffff1673ffffffffffffffffffffffffffffffffffffffff1614611137576040517f08c379a000000000000000000000000000000000000000000000000000000000815260040161112e906121d2565b60405180910390fd5b80600160006101000a81548173ffffffffffffffffffffffffffffffffffffffff021916908373ffffffffffffffffffffffffffffffffffffffff16021790555050565b600460009054906101000a900473ffffffffffffffffffffffffffffffffffffffff1673ffffffffffffffffffffffffffffffffffffffff163373ffffffffffffffffffffffffffffffffffffffff161461120b576040517f08c379a000000000000000000000000000000000000000000000000000000000815260040161120290612112565b60405180910390fd5b6000600460009054906101000a900473ffffffffffffffffffffffffffffffffffffffff1673ffffffffffffffffffffffffffffffffffffffff16476040516112539061202c565b60006040518083038185875af1925050503d8060008114611290576040519150601f19603f3d011682016040523d82523d6000602084013e611295565b606091505b50509050806112d9576040517f08c379a00000000000000000000000000000000000000000000000000000000081526004016112d090612132565b60405180910390fd5b50565b60008060149054906101000a900460ff16905090565b6112fa611a8f565b73ffffffffffffffffffffffffffffffffffffffff1661131861137a565b73ffffffffffffffffffffffffffffffffffffffff161461136e576040517f08c379a000000000000000000000000000000000000000000000000000000000815260040161136590612192565b60405180910390fd5b6113786000611ab0565b565b60008060009054906101000a900473ffffffffffffffffffffffffffffffffffffffff16905090565b69032d26d12e980b60000081565b600460149054906101000a900460ff1681565b6002808111156113fd577f4e487b7100000000000000000000000000000000000000000000000000000000600052602160045260246000fd5b600460149054906101000a900460ff166002811115611445577f4e487b7100000000000000000000000000000000000000000000000000000000600052602160045260246000fd5b14611485576040517f08c379a000000000000000000000000000000000000000000000000000000000815260040161147c90612112565b60405180910390fd5b6000600660003373ffffffffffffffffffffffffffffffffffffffff1673ffffffffffffffffffffffffffffffffffffffff1681526020019081526020016000205411611507576040517f08c379a00000000000000000000000000000000000000000000000000000000081526004016114fe90612172565b60405180910390fd5b60006005600660003373ffffffffffffffffffffffffffffffffffffffff1673ffffffffffffffffffffffffffffffffffffffff1681526020019081526020016000205461155591906122b0565b90506000600660003373ffffffffffffffffffffffffffffffffffffffff1673ffffffffffffffffffffffffffffffffffffffff16815260200190815260200160002081905550600160009054906101000a900473ffffffffffffffffffffffffffffffffffffffff1673ffffffffffffffffffffffffffffffffffffffff1663a9059cbb33836040518363ffffffff1660e01b81526004016115f992919061205c565b602060405180830381600087803b15801561161357600080fd5b505af1158015611627573d6000803e3d6000fd5b505050506040513d601f19601f8201168201806040525081019061164b9190611cbd565b5050565b68056bc75e2d6310000081565b600073ffffffffffffffffffffffffffffffffffffffff16600260009054906101000a900473ffffffffffffffffffffffffffffffffffffffff1673ffffffffffffffffffffffffffffffffffffffff16146116ed576040517f08c379a00000000000000000000000000000000000000000000000000000000081526004016116e4906121d2565b60405180910390fd5b80600260006101000a81548173ffffffffffffffffffffffffffffffffffffffff021916908373ffffffffffffffffffffffffffffffffffffffff16021790555050565b6000600281111561176b577f4e487b7100000000000000000000000000000000000000000000000000000000600052602160045260246000fd5b600460149054906101000a900460ff1660028111156117b3577f4e487b7100000000000000000000000000000000000000000000000000000000600052602160045260246000fd5b141561184657600760003373ffffffffffffffffffffffffffffffffffffffff1673ffffffffffffffffffffffffffffffffffffffff16815260200190815260200160002060009054906101000a900460ff16611845576040517f08c379a000000000000000000000000000000000000000000000000000000000815260040161183c90612112565b60405180910390fd5b5b6000611850610ef8565b905080341115611895576040517f08c379a000000000000000000000000000000000000000000000000000000000815260040161188c906121b2565b60405180910390fd5b34600560008282546118a79190612229565b9250508190555034600660003373ffffffffffffffffffffffffffffffffffffffff1673ffffffffffffffffffffffffffffffffffffffff16815260200190815260200160002060008282546118fd9190612229565b9250508190555060028081111561193d577f4e487b7100000000000000000000000000000000000000000000000000000000600052602160045260246000fd5b600460149054906101000a900460ff166002811115611985577f4e487b7100000000000000000000000000000000000000000000000000000000600052602160045260246000fd5b1415611994576119936113c4565b5b50565b61199f611a8f565b73ffffffffffffffffffffffffffffffffffffffff166119bd61137a565b73ffffffffffffffffffffffffffffffffffffffff1614611a13576040517f08c379a0000000000000000000000000000000000000000000000000000000008152600401611a0a90612192565b60405180910390fd5b600073ffffffffffffffffffffffffffffffffffffffff168173ffffffffffffffffffffffffffffffffffffffff161415611a83576040517f08c379a0000000000000000000000000000000000000000000000000000000008152600401611a7a906120f2565b60405180910390fd5b611a8c81611ab0565b50565b600033905090565b6000818310611aa65781611aa8565b825b905092915050565b60008060009054906101000a900473ffffffffffffffffffffffffffffffffffffffff169050816000806101000a81548173ffffffffffffffffffffffffffffffffffffffff021916908373ffffffffffffffffffffffffffffffffffffffff1602179055508173ffffffffffffffffffffffffffffffffffffffff168173ffffffffffffffffffffffffffffffffffffffff167f8be0079c531659141344cd1fd0a4f28419497f9722a3daafe3b4186f6b6457e060405160405180910390a35050565b600081359050611b83816124cb565b92915050565b60008083601f840112611b9b57600080fd5b8235905067ffffffffffffffff811115611bb457600080fd5b602083019150836020820283011115611bcc57600080fd5b9250929050565b600081359050611be2816124e2565b92915050565b600081519050611bf7816124e2565b92915050565b600081359050611c0c816124f9565b92915050565b600081359050611c2181612510565b92915050565b600081519050611c3681612527565b92915050565b600060208284031215611c4e57600080fd5b6000611c5c84828501611b74565b91505092915050565b600080600060408486031215611c7a57600080fd5b600084013567ffffffffffffffff811115611c9457600080fd5b611ca086828701611b89565b93509350506020611cb386828701611bd3565b9150509250925092565b600060208284031215611ccf57600080fd5b6000611cdd84828501611be8565b91505092915050565b600060208284031215611cf857600080fd5b6000611d0684828501611bfd565b91505092915050565b600060208284031215611d2157600080fd5b6000611d2f84828501611c12565b91505092915050565b600060208284031215611d4a57600080fd5b6000611d5884828501611c27565b91505092915050565b600080600060608486031215611d7657600080fd5b6000611d8486828701611c27565b9350506020611d9586828701611c27565b9250506040611da686828701611c27565b9150509250925092565b611db98161233e565b82525050565b611dc881612362565b82525050565b611dd7816123cf565b82525050565b6000611dea602683612218565b91507f4f776e61626c653a206e6577206f776e657220697320746865207a65726f206160008301527f64647265737300000000000000000000000000000000000000000000000000006020830152604082019050919050565b6000611e50600c83612218565b91507f554e415554484f52495a454400000000000000000000000000000000000000006000830152602082019050919050565b6000611e90600f83612218565b91507f57495448445241575f4641494c454400000000000000000000000000000000006000830152602082019050919050565b6000611ed0600d83612218565b91507f494e56414c49445f5048415345000000000000000000000000000000000000006000830152602082019050919050565b6000611f10600883612218565b91507f4e4f5f46554e44530000000000000000000000000000000000000000000000006000830152602082019050919050565b6000611f50602083612218565b91507f4f776e61626c653a2063616c6c6572206973206e6f7420746865206f776e65726000830152602082019050919050565b6000611f90600a83612218565b91507f4f5645525f4c494d4954000000000000000000000000000000000000000000006000830152602082019050919050565b6000611fd0600a83612218565b91507f57524954455f4f4e4345000000000000000000000000000000000000000000006000830152602082019050919050565b600061201060008361220d565b9150600082019050919050565b612026816123c5565b82525050565b600061203782612003565b9150819050919050565b60006020820190506120566000830184611db0565b92915050565b60006040820190506120716000830185611db0565b61207e602083018461201d565b9392505050565b600060608201905061209a6000830186611db0565b6120a7602083018561201d565b6120b46040830184611db0565b949350505050565b60006020820190506120d16000830184611dbf565b92915050565b60006020820190506120ec6000830184611dce565b92915050565b6000602082019050818103600083015261210b81611ddd565b9050919050565b6000602082019050818103600083015261212b81611e43565b9050919050565b6000602082019050818103600083015261214b81611e83565b9050919050565b6000602082019050818103600083015261216b81611ec3565b9050919050565b6000602082019050818103600083015261218b81611f03565b9050919050565b600060208201905081810360008301526121ab81611f43565b9050919050565b600060208201905081810360008301526121cb81611f83565b9050919050565b600060208201905081810360008301526121eb81611fc3565b9050919050565b6000602082019050612207600083018461201d565b92915050565b600081905092915050565b600082825260208201905092915050565b6000612234826123c5565b915061223f836123c5565b9250827fffffffffffffffffffffffffffffffffffffffffffffffffffffffffffffffff038211156122745761227361242a565b5b828201905092915050565b600061228a826123c5565b9150612295836123c5565b9250826122a5576122a4612459565b5b828204905092915050565b60006122bb826123c5565b91506122c6836123c5565b9250817fffffffffffffffffffffffffffffffffffffffffffffffffffffffffffffffff04831182151516156122ff576122fe61242a565b5b828202905092915050565b6000612315826123c5565b9150612320836123c5565b9250828210156123335761233261242a565b5b828203905092915050565b6000612349826123a5565b9050919050565b600061235b826123a5565b9050919050565b60008115159050919050565b60006123798261233e565b9050919050565b600061238b82612350565b9050919050565b60008190506123a0826124b7565b919050565b600073ffffffffffffffffffffffffffffffffffffffff82169050919050565b6000819050919050565b60006123da82612392565b9050919050565b60006123ec826123c5565b91507fffffffffffffffffffffffffffffffffffffffffffffffffffffffffffffffff82141561241f5761241e61242a565b5b600182019050919050565b7f4e487b7100000000000000000000000000000000000000000000000000000000600052601160045260246000fd5b7f4e487b7100000000000000000000000000000000000000000000000000000000600052601260045260246000fd5b7f4e487b7100000000000000000000000000000000000000000000000000000000600052602160045260246000fd5b600381106124c8576124c7612488565b5b50565b6124d48161233e565b81146124df57600080fd5b50565b6124eb81612362565b81146124f657600080fd5b50565b6125028161236e565b811461250d57600080fd5b50565b61251981612380565b811461252457600080fd5b50565b612530816123c5565b811461253b57600080fd5b5056fea2646970667358221220c1e821beecbfc7c30a2be3cab4d6291638484c73d9ff17c9ffba3d376c31fa9064736f6c63430008000033",
  "linkReferences": {},
  "deployedLinkReferences": {}
}