{
  "_format": "hh-sol-artifact-1",
  "contractName": "SpaceRouter",
  "sourceName": "contracts/SpaceRouter.sol",
  "abi": [
    {
      "inputs": [
        {
          "internalType": "address",
          "name": "_pool",
          "type": "address"
        }
      ],
      "stateMutability": "nonpayable",
      "type": "constructor"
    },
    {
      "inputs": [
        {
          "internalType": "address",
          "name": "token",
          "type": "address"
        },
        {
          "internalType": "uint256",
          "name": "amountToken",
          "type": "uint256"
        },
        {
          "internalType": "address",
          "name": "to",
          "type": "address"
        }
      ],
      "name": "addLiquidity",
      "outputs": [
        {
          "internalType": "uint256",
          "name": "liquidity",
          "type": "uint256"
        }
      ],
      "stateMutability": "payable",
      "type": "function"
    },
    {
      "inputs": [
        {
          "internalType": "uint256",
          "name": "liquidity",
          "type": "uint256"
        },
        {
          "internalType": "address",
          "name": "to",
          "type": "address"
        }
      ],
      "name": "removeLiquidity",
      "outputs": [
        {
          "internalType": "uint256",
          "name": "amount0",
          "type": "uint256"
        },
        {
          "internalType": "uint256",
          "name": "amount1",
          "type": "uint256"
        }
      ],
      "stateMutability": "nonpayable",
      "type": "function"
    },
    {
      "inputs": [
        {
          "internalType": "address",
          "name": "token",
          "type": "address"
        },
        {
          "internalType": "address",
          "name": "to",
          "type": "address"
        }
      ],
      "name": "swapExactETHForTokens",
      "outputs": [
        {
          "internalType": "uint256",
          "name": "amount",
          "type": "uint256"
        }
      ],
      "stateMutability": "payable",
      "type": "function"
    },
    {
      "inputs": [
        {
          "internalType": "address",
          "name": "token",
          "type": "address"
        },
        {
          "internalType": "uint256",
          "name": "amountIn",
          "type": "uint256"
        },
        {
          "internalType": "address",
          "name": "to",
          "type": "address"
        }
      ],
      "name": "swapExactTokensForETH",
      "outputs": [
        {
          "internalType": "uint256",
          "name": "amount",
          "type": "uint256"
        }
      ],
      "stateMutability": "nonpayable",
      "type": "function"
    },
    {
      "stateMutability": "payable",
      "type": "receive"
    }
  ],
  "bytecode": "0x60806040523480156200001157600080fd5b50604051620014ce380380620014ce833981810160405281019062000037919062000095565b806000806101000a81548173ffffffffffffffffffffffffffffffffffffffff021916908373ffffffffffffffffffffffffffffffffffffffff160217905550506200010f565b6000815190506200008f81620000f5565b92915050565b600060208284031215620000a857600080fd5b6000620000b8848285016200007e565b91505092915050565b6000620000ce82620000d5565b9050919050565b600073ffffffffffffffffffffffffffffffffffffffff82169050919050565b6200010081620000c1565b81146200010c57600080fd5b50565b6113af806200011f6000396000f3fe6080604052600436106100435760003560e01c806305fe138b1461004f5780631b8793781461008d5780635da4b51d146100bd5780635e6e2379146100fa5761004a565b3661004a57005b600080fd5b34801561005b57600080fd5b5061007660048036038101906100719190610cdc565b61012a565b6040516100849291906110b1565b60405180910390f35b6100a760048036038101906100a29190610bff565b6102b6565b6040516100b49190611028565b60405180910390f35b3480156100c957600080fd5b506100e460048036038101906100df9190610bff565b6104ea565b6040516100f19190611028565b60405180910390f35b610114600480360381019061010f9190610bc3565b610648565b6040516101219190611028565b60405180910390f35b60008060008054906101000a900473ffffffffffffffffffffffffffffffffffffffff1673ffffffffffffffffffffffffffffffffffffffff166323b872dd3360008054906101000a900473ffffffffffffffffffffffffffffffffffffffff16876040518463ffffffff1660e01b81526004016101aa93929190610f48565b602060405180830381600087803b1580156101c457600080fd5b505af11580156101d8573d6000803e3d6000fd5b505050506040513d601f19601f820116820180604052508101906101fc9190610c4e565b5060008054906101000a900473ffffffffffffffffffffffffffffffffffffffff1673ffffffffffffffffffffffffffffffffffffffff166389afcb44846040518263ffffffff1660e01b81526004016102569190610f2d565b6040805180830381600087803b15801561026f57600080fd5b505af1158015610283573d6000803e3d6000fd5b505050506040513d601f19601f820116820180604052508101906102a79190610d18565b80925081935050509250929050565b60008373ffffffffffffffffffffffffffffffffffffffff166323b872dd3360008054906101000a900473ffffffffffffffffffffffffffffffffffffffff16866040518463ffffffff1660e01b815260040161031593929190610f48565b602060405180830381600087803b15801561032f57600080fd5b505af1158015610343573d6000803e3d6000fd5b505050506040513d601f19601f820116820180604052508101906103679190610c4e565b5060008060009054906101000a900473ffffffffffffffffffffffffffffffffffffffff1673ffffffffffffffffffffffffffffffffffffffff16346040516103af90610f18565b60006040518083038185875af1925050503d80600081146103ec576040519150601f19603f3d011682016040523d82523d6000602084013e6103f1565b606091505b5050905080610435576040517f08c379a000000000000000000000000000000000000000000000000000000000815260040161042c90610fc8565b60405180910390fd5b60008054906101000a900473ffffffffffffffffffffffffffffffffffffffff1673ffffffffffffffffffffffffffffffffffffffff16636a627842846040518263ffffffff1660e01b815260040161048e9190610f2d565b602060405180830381600087803b1580156104a857600080fd5b505af11580156104bc573d6000803e3d6000fd5b505050506040513d601f19601f820116820180604052508101906104e09190610cb3565b9150509392505050565b60006104f5836107a2565b90508373ffffffffffffffffffffffffffffffffffffffff166323b872dd3360008054906101000a900473ffffffffffffffffffffffffffffffffffffffff16866040518463ffffffff1660e01b815260040161055493929190610f48565b602060405180830381600087803b15801561056e57600080fd5b505af1158015610582573d6000803e3d6000fd5b505050506040513d601f19601f820116820180604052508101906105a69190610c4e565b5060008054906101000a900473ffffffffffffffffffffffffffffffffffffffff1673ffffffffffffffffffffffffffffffffffffffff166343264349823060006040518463ffffffff1660e01b815260040161060593929190611043565b600060405180830381600087803b15801561061f57600080fd5b505af1158015610633573d6000803e3d6000fd5b505050506106418282610a34565b9392505050565b6000610653346107a2565b905061067f60008054906101000a900473ffffffffffffffffffffffffffffffffffffffff1634610a34565b60008054906101000a900473ffffffffffffffffffffffffffffffffffffffff1673ffffffffffffffffffffffffffffffffffffffff1663432643498230346040518463ffffffff1660e01b81526004016106dc9392919061107a565b600060405180830381600087803b1580156106f657600080fd5b505af115801561070a573d6000803e3d6000fd5b505050508273ffffffffffffffffffffffffffffffffffffffff1663a9059cbb83836040518363ffffffff1660e01b8152600401610749929190610f7f565b602060405180830381600087803b15801561076357600080fd5b505af1158015610777573d6000803e3d6000fd5b505050506040513d601f19601f8201168201806040525081019061079b9190610c4e565b5092915050565b60008082116107e6576040517f08c379a00000000000000000000000000000000000000000000000000000000081526004016107dd90610fe8565b60405180910390fd5b60008060003411156108c25760008054906101000a900473ffffffffffffffffffffffffffffffffffffffff1673ffffffffffffffffffffffffffffffffffffffff16630902f1ac6040518163ffffffff1660e01b8152600401604080518083038186803b15801561085757600080fd5b505afa15801561086b573d6000803e3d6000fd5b505050506040513d601f19601f8201168201806040525081019061088f9190610c77565b816dffffffffffffffffffffffffffff169150806dffffffffffffffffffffffffffff169050809250819350505061098e565b60008054906101000a900473ffffffffffffffffffffffffffffffffffffffff1673ffffffffffffffffffffffffffffffffffffffff16630902f1ac6040518163ffffffff1660e01b8152600401604080518083038186803b15801561092757600080fd5b505afa15801561093b573d6000803e3d6000fd5b505050506040513d601f19601f8201168201806040525081019061095f9190610c77565b816dffffffffffffffffffffffffffff169150806dffffffffffffffffffffffffffff16905080935081925050505b60008111801561099e5750600082115b6109dd576040517f08c379a00000000000000000000000000000000000000000000000000000000081526004016109d490611008565b60405180910390fd5b60006103e7856109ed9190611188565b9050600083826109fd9190611188565b90506000826103e885610a109190611188565b610a1a9190611101565b90508082610a289190611157565b95505050505050919050565b60008273ffffffffffffffffffffffffffffffffffffffff1682600067ffffffffffffffff811115610a8f577f4e487b7100000000000000000000000000000000000000000000000000000000600052604160045260246000fd5b6040519080825280601f01601f191660200182016040528015610ac15781602001600182028036833780820191505090505b50604051610acf9190610f01565b60006040518083038185875af1925050503d8060008114610b0c576040519150601f19603f3d011682016040523d82523d6000602084013e610b11565b606091505b5050905080610b55576040517f08c379a0000000000000000000000000000000000000000000000000000000008152600401610b4c90610fa8565b60405180910390fd5b505050565b600081359050610b698161131d565b92915050565b600081519050610b7e81611334565b92915050565b600081519050610b938161134b565b92915050565b600081359050610ba881611362565b92915050565b600081519050610bbd81611362565b92915050565b60008060408385031215610bd657600080fd5b6000610be485828601610b5a565b9250506020610bf585828601610b5a565b9150509250929050565b600080600060608486031215610c1457600080fd5b6000610c2286828701610b5a565b9350506020610c3386828701610b99565b9250506040610c4486828701610b5a565b9150509250925092565b600060208284031215610c6057600080fd5b6000610c6e84828501610b6f565b91505092915050565b60008060408385031215610c8a57600080fd5b6000610c9885828601610b84565b9250506020610ca985828601610b84565b9150509250929050565b600060208284031215610cc557600080fd5b6000610cd384828501610bae565b91505092915050565b60008060408385031215610cef57600080fd5b6000610cfd85828601610b99565b9250506020610d0e85828601610b5a565b9150509250929050565b60008060408385031215610d2b57600080fd5b6000610d3985828601610bae565b9250506020610d4a85828601610bae565b9150509250929050565b610d5d81611244565b82525050565b610d6c816111e2565b82525050565b6000610d7d826110da565b610d8781856110e5565b9350610d9781856020860161128c565b80840191505092915050565b610dac81611256565b82525050565b6000610dbf6034836110f0565b91507f5472616e7366657248656c7065723a3a736166655472616e736665724554483a60008301527f20455448207472616e73666572206661696c65640000000000000000000000006020830152604082019050919050565b6000610e25600f836110f0565b91507f57495448445241575f4641494c454400000000000000000000000000000000006000830152602082019050919050565b6000610e656019836110f0565b91507f494e53554646494349454e545f494e5055545f414d4f554e54000000000000006000830152602082019050919050565b6000610ea56000836110e5565b9150600082019050919050565b6000610ebf6016836110f0565b91507f494e53554646494349454e545f4c4951554944495459000000000000000000006000830152602082019050919050565b610efb8161123a565b82525050565b6000610f0d8284610d72565b915081905092915050565b6000610f2382610e98565b9150819050919050565b6000602082019050610f426000830184610d63565b92915050565b6000606082019050610f5d6000830186610d63565b610f6a6020830185610d54565b610f776040830184610ef2565b949350505050565b6000604082019050610f946000830185610d63565b610fa16020830184610ef2565b9392505050565b60006020820190508181036000830152610fc181610db2565b9050919050565b60006020820190508181036000830152610fe181610e18565b9050919050565b6000602082019050818103600083015261100181610e58565b9050919050565b6000602082019050818103600083015261102181610eb2565b9050919050565b600060208201905061103d6000830184610ef2565b92915050565b60006060820190506110586000830186610ef2565b6110656020830185610d63565b6110726040830184610da3565b949350505050565b600060608201905061108f6000830186610ef2565b61109c6020830185610d63565b6110a96040830184610ef2565b949350505050565b60006040820190506110c66000830185610ef2565b6110d36020830184610ef2565b9392505050565b600081519050919050565b600081905092915050565b600082825260208201905092915050565b600061110c8261123a565b91506111178361123a565b9250827fffffffffffffffffffffffffffffffffffffffffffffffffffffffffffffffff0382111561114c5761114b6112bf565b5b828201905092915050565b60006111628261123a565b915061116d8361123a565b92508261117d5761117c6112ee565b5b828204905092915050565b60006111938261123a565b915061119e8361123a565b9250817fffffffffffffffffffffffffffffffffffffffffffffffffffffffffffffffff04831182151516156111d7576111d66112bf565b5b828202905092915050565b60006111ed8261121a565b9050919050565b60008115159050919050565b60006dffffffffffffffffffffffffffff82169050919050565b600073ffffffffffffffffffffffffffffffffffffffff82169050919050565b6000819050919050565b600061124f82611268565b9050919050565b60006112618261123a565b9050919050565b60006112738261127a565b9050919050565b60006112858261121a565b9050919050565b60005b838110156112aa57808201518184015260208101905061128f565b838111156112b9576000848401525b50505050565b7f4e487b7100000000000000000000000000000000000000000000000000000000600052601160045260246000fd5b7f4e487b7100000000000000000000000000000000000000000000000000000000600052601260045260246000fd5b611326816111e2565b811461133157600080fd5b50565b61133d816111f4565b811461134857600080fd5b50565b61135481611200565b811461135f57600080fd5b50565b61136b8161123a565b811461137657600080fd5b5056fea2646970667358221220204740d6a18f809c4322dbc98a9995bd35b6a719ccef2a27e8093b779e866a6664736f6c63430008000033",
  "linkReferences": {},
  "deployedLinkReferences": {}
}