{
  "_format": "hh-sol-artifact-1",
  "contractName": "SpaceRouter",
  "sourceName": "contracts/SpaceRouter.sol",
  "abi": [
    {
      "inputs": [
        {
          "internalType": "address",
          "name": "_pool",
          "type": "address"
        }
      ],
      "stateMutability": "nonpayable",
      "type": "constructor"
    },
    {
      "inputs": [
        {
          "internalType": "address",
          "name": "token",
          "type": "address"
        },
        {
          "internalType": "uint256",
          "name": "amountTokenDesired",
          "type": "uint256"
        },
        {
          "internalType": "address",
          "name": "to",
          "type": "address"
        }
      ],
      "name": "addLiquidity",
      "outputs": [
        {
          "internalType": "uint256",
          "name": "amountSPC",
          "type": "uint256"
        },
        {
          "internalType": "uint256",
          "name": "amountETH",
          "type": "uint256"
        },
        {
          "internalType": "uint256",
          "name": "liquidity",
          "type": "uint256"
        }
      ],
      "stateMutability": "payable",
      "type": "function"
    },
    {
      "inputs": [
        {
          "internalType": "uint256",
          "name": "liquidity",
          "type": "uint256"
        },
        {
          "internalType": "address",
          "name": "to",
          "type": "address"
        }
      ],
      "name": "removeLiquidity",
      "outputs": [
        {
          "internalType": "uint256",
          "name": "amount0",
          "type": "uint256"
        },
        {
          "internalType": "uint256",
          "name": "amount1",
          "type": "uint256"
        }
      ],
      "stateMutability": "nonpayable",
      "type": "function"
    },
    {
      "inputs": [
        {
          "internalType": "address",
          "name": "token",
          "type": "address"
        },
        {
          "internalType": "address",
          "name": "to",
          "type": "address"
        }
      ],
      "name": "swapExactETHForTokens",
      "outputs": [
        {
          "internalType": "uint256",
          "name": "amount",
          "type": "uint256"
        }
      ],
      "stateMutability": "payable",
      "type": "function"
    },
    {
      "inputs": [
        {
          "internalType": "address",
          "name": "token",
          "type": "address"
        },
        {
          "internalType": "uint256",
          "name": "amountIn",
          "type": "uint256"
        },
        {
          "internalType": "address",
          "name": "to",
          "type": "address"
        }
      ],
      "name": "swapExactTokensForETH",
      "outputs": [
        {
          "internalType": "uint256",
          "name": "amount",
          "type": "uint256"
        }
      ],
      "stateMutability": "nonpayable",
      "type": "function"
    },
    {
      "stateMutability": "payable",
      "type": "receive"
    }
  ],
  "bytecode": "0x60806040523480156200001157600080fd5b5060405162001a4838038062001a48833981810160405281019062000037919062000095565b806000806101000a81548173ffffffffffffffffffffffffffffffffffffffff021916908373ffffffffffffffffffffffffffffffffffffffff160217905550506200010f565b6000815190506200008f81620000f5565b92915050565b600060208284031215620000a857600080fd5b6000620000b8848285016200007e565b91505092915050565b6000620000ce82620000d5565b9050919050565b600073ffffffffffffffffffffffffffffffffffffffff82169050919050565b6200010081620000c1565b81146200010c57600080fd5b50565b611929806200011f6000396000f3fe6080604052600436106100435760003560e01c806305fe138b1461004f5780631b8793781461008d5780635da4b51d146100bf5780635e6e2379146100fc5761004a565b3661004a57005b600080fd5b34801561005b57600080fd5b5061007660048036038101906100719190610ff6565b61012c565b6040516100849291906115f4565b60405180910390f35b6100a760048036038101906100a29190610f19565b6102b8565b6040516100b69392919061161d565b60405180910390f35b3480156100cb57600080fd5b506100e660048036038101906100e19190610f19565b61047e565b6040516100f3919061156b565b60405180910390f35b61011660048036038101906101119190610edd565b610558565b604051610123919061156b565b60405180910390f35b60008060008054906101000a900473ffffffffffffffffffffffffffffffffffffffff1673ffffffffffffffffffffffffffffffffffffffff166323b872dd3360008054906101000a900473ffffffffffffffffffffffffffffffffffffffff16876040518463ffffffff1660e01b81526004016101ac939291906113d4565b602060405180830381600087803b1580156101c657600080fd5b505af11580156101da573d6000803e3d6000fd5b505050506040513d601f19601f820116820180604052508101906101fe9190610f68565b5060008054906101000a900473ffffffffffffffffffffffffffffffffffffffff1673ffffffffffffffffffffffffffffffffffffffff166389afcb44846040518263ffffffff1660e01b815260040161025891906113b9565b6040805180830381600087803b15801561027157600080fd5b505af1158015610285573d6000803e3d6000fd5b505050506040513d601f19601f820116820180604052508101906102a99190611032565b80925081935050509250929050565b60008060006102c68561062f565b80935081945050506102fa863360008054906101000a900473ffffffffffffffffffffffffffffffffffffffff168661079a565b60008060009054906101000a900473ffffffffffffffffffffffffffffffffffffffff1673ffffffffffffffffffffffffffffffffffffffff1683604051610341906113a4565b60006040518083038185875af1925050503d806000811461037e576040519150601f19603f3d011682016040523d82523d6000602084013e610383565b606091505b50509050806103c7576040517f08c379a00000000000000000000000000000000000000000000000000000000081526004016103be906114ab565b60405180910390fd5b60008054906101000a900473ffffffffffffffffffffffffffffffffffffffff1673ffffffffffffffffffffffffffffffffffffffff16636a627842866040518263ffffffff1660e01b815260040161042091906113b9565b602060405180830381600087803b15801561043a57600080fd5b505af115801561044e573d6000803e3d6000fd5b505050506040513d601f19601f820116820180604052508101906104729190610fcd565b91505093509350939050565b6000610489836108d3565b90506104b7843360008054906101000a900473ffffffffffffffffffffffffffffffffffffffff168661079a565b60008054906101000a900473ffffffffffffffffffffffffffffffffffffffff1673ffffffffffffffffffffffffffffffffffffffff166343264349823060006040518463ffffffff1660e01b815260040161051593929190611586565b600060405180830381600087803b15801561052f57600080fd5b505af1158015610543573d6000803e3d6000fd5b505050506105518282610b65565b9392505050565b6000610563346108d3565b905061058f60008054906101000a900473ffffffffffffffffffffffffffffffffffffffff1634610b65565b60008054906101000a900473ffffffffffffffffffffffffffffffffffffffff1673ffffffffffffffffffffffffffffffffffffffff1663432643498230346040518463ffffffff1660e01b81526004016105ec939291906115bd565b600060405180830381600087803b15801561060657600080fd5b505af115801561061a573d6000803e3d6000fd5b50505050610629838383610c8b565b92915050565b60008060008060008054906101000a900473ffffffffffffffffffffffffffffffffffffffff1673ffffffffffffffffffffffffffffffffffffffff16630902f1ac6040518163ffffffff1660e01b8152600401604080518083038186803b15801561069a57600080fd5b505afa1580156106ae573d6000803e3d6000fd5b505050506040513d601f19601f820116820180604052508101906106d29190610f91565b6dffffffffffffffffffffffffffff1691506dffffffffffffffffffffffffffff1691506000821480156107065750600081145b1561071a5784348094508195505050610793565b6000610727868484610dc1565b905034811161073f5785348095508196505050610791565b600061074c348486610dc1565b905086811115610785577f4e487b7100000000000000000000000000000000000000000000000000000000600052600160045260246000fd5b80348096508197505050505b505b5050915091565b6000808573ffffffffffffffffffffffffffffffffffffffff166323b872dd8686866040516024016107ce9392919061140b565b6040516020818303038152906040529060e01b6020820180517bffffffffffffffffffffffffffffffffffffffffffffffffffffffff838183161783525050505060405161081c919061138d565b6000604051808303816000865af19150503d8060008114610859576040519150601f19603f3d011682016040523d82523d6000602084013e61085e565b606091505b509150915081801561088c575060008151148061088b57508080602001905181019061088a9190610f68565b5b5b6108cb576040517f08c379a00000000000000000000000000000000000000000000000000000000081526004016108c29061146b565b60405180910390fd5b505050505050565b6000808211610917576040517f08c379a000000000000000000000000000000000000000000000000000000000815260040161090e906114eb565b60405180910390fd5b60008060003411156109f35760008054906101000a900473ffffffffffffffffffffffffffffffffffffffff1673ffffffffffffffffffffffffffffffffffffffff16630902f1ac6040518163ffffffff1660e01b8152600401604080518083038186803b15801561098857600080fd5b505afa15801561099c573d6000803e3d6000fd5b505050506040513d601f19601f820116820180604052508101906109c09190610f91565b816dffffffffffffffffffffffffffff169150806dffffffffffffffffffffffffffff1690508092508193505050610abf565b60008054906101000a900473ffffffffffffffffffffffffffffffffffffffff1673ffffffffffffffffffffffffffffffffffffffff16630902f1ac6040518163ffffffff1660e01b8152600401604080518083038186803b158015610a5857600080fd5b505afa158015610a6c573d6000803e3d6000fd5b505050506040513d601f19601f82011682018060405250810190610a909190610f91565b816dffffffffffffffffffffffffffff169150806dffffffffffffffffffffffffffff16905080935081925050505b600081118015610acf5750600082115b610b0e576040517f08c379a0000000000000000000000000000000000000000000000000000000008152600401610b05906114cb565b60405180910390fd5b60006103e785610b1e9190611702565b905060008382610b2e9190611702565b90506000826103e885610b419190611702565b610b4b919061167b565b90508082610b5991906116d1565b95505050505050919050565b60008273ffffffffffffffffffffffffffffffffffffffff1682600067ffffffffffffffff811115610bc0577f4e487b7100000000000000000000000000000000000000000000000000000000600052604160045260246000fd5b6040519080825280601f01601f191660200182016040528015610bf25781602001600182028036833780820191505090505b50604051610c00919061138d565b60006040518083038185875af1925050503d8060008114610c3d576040519150601f19603f3d011682016040523d82523d6000602084013e610c42565b606091505b5050905080610c86576040517f08c379a0000000000000000000000000000000000000000000000000000000008152600401610c7d9061148b565b60405180910390fd5b505050565b6000808473ffffffffffffffffffffffffffffffffffffffff1663a9059cbb8585604051602401610cbd929190611442565b6040516020818303038152906040529060e01b6020820180517bffffffffffffffffffffffffffffffffffffffffffffffffffffffff8381831617835250505050604051610d0b919061138d565b6000604051808303816000865af19150503d8060008114610d48576040519150601f19603f3d011682016040523d82523d6000602084013e610d4d565b606091505b5091509150818015610d7b5750600081511480610d7a575080806020019051810190610d799190610f68565b5b5b610dba576040517f08c379a0000000000000000000000000000000000000000000000000000000008152600401610db19061150b565b60405180910390fd5b5050505050565b6000808411610e05576040517f08c379a0000000000000000000000000000000000000000000000000000000008152600401610dfc9061152b565b60405180910390fd5b600083118015610e155750600082115b610e54576040517f08c379a0000000000000000000000000000000000000000000000000000000008152600401610e4b9061154b565b60405180910390fd5b828285610e619190611702565b610e6b91906116d1565b90509392505050565b600081359050610e8381611897565b92915050565b600081519050610e98816118ae565b92915050565b600081519050610ead816118c5565b92915050565b600081359050610ec2816118dc565b92915050565b600081519050610ed7816118dc565b92915050565b60008060408385031215610ef057600080fd5b6000610efe85828601610e74565b9250506020610f0f85828601610e74565b9150509250929050565b600080600060608486031215610f2e57600080fd5b6000610f3c86828701610e74565b9350506020610f4d86828701610eb3565b9250506040610f5e86828701610e74565b9150509250925092565b600060208284031215610f7a57600080fd5b6000610f8884828501610e89565b91505092915050565b60008060408385031215610fa457600080fd5b6000610fb285828601610e9e565b9250506020610fc385828601610e9e565b9150509250929050565b600060208284031215610fdf57600080fd5b6000610fed84828501610ec8565b91505092915050565b6000806040838503121561100957600080fd5b600061101785828601610eb3565b925050602061102885828601610e74565b9150509250929050565b6000806040838503121561104557600080fd5b600061105385828601610ec8565b925050602061106485828601610ec8565b9150509250929050565b611077816117be565b82525050565b6110868161175c565b82525050565b600061109782611654565b6110a1818561165f565b93506110b1818560208601611806565b80840191505092915050565b6110c6816117d0565b82525050565b60006110d960318361166a565b91507f5472616e7366657248656c7065723a3a7472616e7366657246726f6d3a20747260008301527f616e7366657246726f6d206661696c65640000000000000000000000000000006020830152604082019050919050565b600061113f60348361166a565b91507f5472616e7366657248656c7065723a3a736166655472616e736665724554483a60008301527f20455448207472616e73666572206661696c65640000000000000000000000006020830152604082019050919050565b60006111a5600f8361166a565b91507f57495448445241575f4641494c454400000000000000000000000000000000006000830152602082019050919050565b60006111e560288361166a565b91507f556e697377617056324c6962726172793a20494e53554646494349454e545f4c60008301527f49515549444954590000000000000000000000000000000000000000000000006020830152604082019050919050565b600061124b60198361166a565b91507f494e53554646494349454e545f494e5055545f414d4f554e54000000000000006000830152602082019050919050565b600061128b60008361165f565b9150600082019050919050565b60006112a5602d8361166a565b91507f5472616e7366657248656c7065723a3a736166655472616e736665723a20747260008301527f616e73666572206661696c6564000000000000000000000000000000000000006020830152604082019050919050565b600061130b60138361166a565b91507f494e53554646494349454e545f414d4f554e54000000000000000000000000006000830152602082019050919050565b600061134b60168361166a565b91507f494e53554646494349454e545f4c4951554944495459000000000000000000006000830152602082019050919050565b611387816117b4565b82525050565b6000611399828461108c565b915081905092915050565b60006113af8261127e565b9150819050919050565b60006020820190506113ce600083018461107d565b92915050565b60006060820190506113e9600083018661107d565b6113f6602083018561106e565b611403604083018461137e565b949350505050565b6000606082019050611420600083018661107d565b61142d602083018561107d565b61143a604083018461137e565b949350505050565b6000604082019050611457600083018561107d565b611464602083018461137e565b9392505050565b60006020820190508181036000830152611484816110cc565b9050919050565b600060208201905081810360008301526114a481611132565b9050919050565b600060208201905081810360008301526114c481611198565b9050919050565b600060208201905081810360008301526114e4816111d8565b9050919050565b600060208201905081810360008301526115048161123e565b9050919050565b6000602082019050818103600083015261152481611298565b9050919050565b60006020820190508181036000830152611544816112fe565b9050919050565b600060208201905081810360008301526115648161133e565b9050919050565b6000602082019050611580600083018461137e565b92915050565b600060608201905061159b600083018661137e565b6115a8602083018561107d565b6115b560408301846110bd565b949350505050565b60006060820190506115d2600083018661137e565b6115df602083018561107d565b6115ec604083018461137e565b949350505050565b6000604082019050611609600083018561137e565b611616602083018461137e565b9392505050565b6000606082019050611632600083018661137e565b61163f602083018561137e565b61164c604083018461137e565b949350505050565b600081519050919050565b600081905092915050565b600082825260208201905092915050565b6000611686826117b4565b9150611691836117b4565b9250827fffffffffffffffffffffffffffffffffffffffffffffffffffffffffffffffff038211156116c6576116c5611839565b5b828201905092915050565b60006116dc826117b4565b91506116e7836117b4565b9250826116f7576116f6611868565b5b828204905092915050565b600061170d826117b4565b9150611718836117b4565b9250817fffffffffffffffffffffffffffffffffffffffffffffffffffffffffffffffff048311821515161561175157611750611839565b5b828202905092915050565b600061176782611794565b9050919050565b60008115159050919050565b60006dffffffffffffffffffffffffffff82169050919050565b600073ffffffffffffffffffffffffffffffffffffffff82169050919050565b6000819050919050565b60006117c9826117e2565b9050919050565b60006117db826117b4565b9050919050565b60006117ed826117f4565b9050919050565b60006117ff82611794565b9050919050565b60005b83811015611824578082015181840152602081019050611809565b83811115611833576000848401525b50505050565b7f4e487b7100000000000000000000000000000000000000000000000000000000600052601160045260246000fd5b7f4e487b7100000000000000000000000000000000000000000000000000000000600052601260045260246000fd5b6118a08161175c565b81146118ab57600080fd5b50565b6118b78161176e565b81146118c257600080fd5b50565b6118ce8161177a565b81146118d957600080fd5b50565b6118e5816117b4565b81146118f057600080fd5b5056fea26469706673582212209b9b69fa2773c9288233d3d183d21f8eef43de1c6ea96760dd91be947e8b906764736f6c63430008000033",
  "linkReferences": {},
  "deployedLinkReferences": {}
}