{
  "_format": "hh-sol-artifact-1",
  "contractName": "SpaceCoin",
  "sourceName": "contracts/SpaceCoin.sol",
  "abi": [
    {
      "inputs": [
        {
          "internalType": "address",
          "name": "_ico",
          "type": "address"
        },
        {
          "internalType": "address",
          "name": "_treasury",
          "type": "address"
        }
      ],
      "stateMutability": "nonpayable",
      "type": "constructor"
    },
    {
      "anonymous": false,
      "inputs": [
        {
          "indexed": true,
          "internalType": "address",
          "name": "owner",
          "type": "address"
        },
        {
          "indexed": true,
          "internalType": "address",
          "name": "spender",
          "type": "address"
        },
        {
          "indexed": false,
          "internalType": "uint256",
          "name": "value",
          "type": "uint256"
        }
      ],
      "name": "Approval",
      "type": "event"
    },
    {
      "anonymous": false,
      "inputs": [
        {
          "indexed": true,
          "internalType": "address",
          "name": "previousOwner",
          "type": "address"
        },
        {
          "indexed": true,
          "internalType": "address",
          "name": "newOwner",
          "type": "address"
        }
      ],
      "name": "OwnershipTransferred",
      "type": "event"
    },
    {
      "anonymous": false,
      "inputs": [
        {
          "indexed": true,
          "internalType": "address",
          "name": "from",
          "type": "address"
        },
        {
          "indexed": true,
          "internalType": "address",
          "name": "to",
          "type": "address"
        },
        {
          "indexed": false,
          "internalType": "uint256",
          "name": "value",
          "type": "uint256"
        }
      ],
      "name": "Transfer",
      "type": "event"
    },
    {
      "inputs": [],
      "name": "EXCHANGE_RATE",
      "outputs": [
        {
          "internalType": "uint256",
          "name": "",
          "type": "uint256"
        }
      ],
      "stateMutability": "view",
      "type": "function"
    },
    {
      "inputs": [
        {
          "internalType": "address",
          "name": "owner",
          "type": "address"
        },
        {
          "internalType": "address",
          "name": "spender",
          "type": "address"
        }
      ],
      "name": "allowance",
      "outputs": [
        {
          "internalType": "uint256",
          "name": "",
          "type": "uint256"
        }
      ],
      "stateMutability": "view",
      "type": "function"
    },
    {
      "inputs": [
        {
          "internalType": "address",
          "name": "spender",
          "type": "address"
        },
        {
          "internalType": "uint256",
          "name": "amount",
          "type": "uint256"
        }
      ],
      "name": "approve",
      "outputs": [
        {
          "internalType": "bool",
          "name": "",
          "type": "bool"
        }
      ],
      "stateMutability": "nonpayable",
      "type": "function"
    },
    {
      "inputs": [
        {
          "internalType": "address",
          "name": "account",
          "type": "address"
        }
      ],
      "name": "balanceOf",
      "outputs": [
        {
          "internalType": "uint256",
          "name": "",
          "type": "uint256"
        }
      ],
      "stateMutability": "view",
      "type": "function"
    },
    {
      "inputs": [],
      "name": "decimals",
      "outputs": [
        {
          "internalType": "uint8",
          "name": "",
          "type": "uint8"
        }
      ],
      "stateMutability": "view",
      "type": "function"
    },
    {
      "inputs": [
        {
          "internalType": "address",
          "name": "spender",
          "type": "address"
        },
        {
          "internalType": "uint256",
          "name": "subtractedValue",
          "type": "uint256"
        }
      ],
      "name": "decreaseAllowance",
      "outputs": [
        {
          "internalType": "bool",
          "name": "",
          "type": "bool"
        }
      ],
      "stateMutability": "nonpayable",
      "type": "function"
    },
    {
      "inputs": [
        {
          "internalType": "address",
          "name": "spender",
          "type": "address"
        },
        {
          "internalType": "uint256",
          "name": "addedValue",
          "type": "uint256"
        }
      ],
      "name": "increaseAllowance",
      "outputs": [
        {
          "internalType": "bool",
          "name": "",
          "type": "bool"
        }
      ],
      "stateMutability": "nonpayable",
      "type": "function"
    },
    {
      "inputs": [],
      "name": "name",
      "outputs": [
        {
          "internalType": "string",
          "name": "",
          "type": "string"
        }
      ],
      "stateMutability": "view",
      "type": "function"
    },
    {
      "inputs": [],
      "name": "owner",
      "outputs": [
        {
          "internalType": "address",
          "name": "",
          "type": "address"
        }
      ],
      "stateMutability": "view",
      "type": "function"
    },
    {
      "inputs": [],
      "name": "renounceOwnership",
      "outputs": [],
      "stateMutability": "nonpayable",
      "type": "function"
    },
    {
      "inputs": [],
      "name": "shouldTax",
      "outputs": [
        {
          "internalType": "bool",
          "name": "",
          "type": "bool"
        }
      ],
      "stateMutability": "view",
      "type": "function"
    },
    {
      "inputs": [],
      "name": "symbol",
      "outputs": [
        {
          "internalType": "string",
          "name": "",
          "type": "string"
        }
      ],
      "stateMutability": "view",
      "type": "function"
    },
    {
      "inputs": [
        {
          "internalType": "bool",
          "name": "_shouldTax",
          "type": "bool"
        }
      ],
      "name": "toggleTax",
      "outputs": [],
      "stateMutability": "nonpayable",
      "type": "function"
    },
    {
      "inputs": [],
      "name": "totalSupply",
      "outputs": [
        {
          "internalType": "uint256",
          "name": "",
          "type": "uint256"
        }
      ],
      "stateMutability": "view",
      "type": "function"
    },
    {
      "inputs": [
        {
          "internalType": "address",
          "name": "recipient",
          "type": "address"
        },
        {
          "internalType": "uint256",
          "name": "amount",
          "type": "uint256"
        }
      ],
      "name": "transfer",
      "outputs": [
        {
          "internalType": "bool",
          "name": "",
          "type": "bool"
        }
      ],
      "stateMutability": "nonpayable",
      "type": "function"
    },
    {
      "inputs": [
        {
          "internalType": "address",
          "name": "sender",
          "type": "address"
        },
        {
          "internalType": "address",
          "name": "recipient",
          "type": "address"
        },
        {
          "internalType": "uint256",
          "name": "amount",
          "type": "uint256"
        }
      ],
      "name": "transferFrom",
      "outputs": [
        {
          "internalType": "bool",
          "name": "",
          "type": "bool"
        }
      ],
      "stateMutability": "nonpayable",
      "type": "function"
    },
    {
      "inputs": [
        {
          "internalType": "address",
          "name": "newOwner",
          "type": "address"
        }
      ],
      "name": "transferOwnership",
      "outputs": [],
      "stateMutability": "nonpayable",
      "type": "function"
    },
    {
      "inputs": [],
      "name": "treasury",
      "outputs": [
        {
          "internalType": "address",
          "name": "",
          "type": "address"
        }
      ],
      "stateMutability": "view",
      "type": "function"
    }
  ],
  "bytecode": "0x60806040523480156200001157600080fd5b50604051620022d7380380620022d78339818101604052810190620000379190620004da565b6040518060400160405280600581526020017f53706163650000000000000000000000000000000000000000000000000000008152506040518060400160405280600381526020017f53504300000000000000000000000000000000000000000000000000000000008152508160039080519060200190620000bb92919062000413565b508060049080519060200190620000d492919062000413565b505050620000f7620000eb620001c260201b60201c565b620001ca60201b60201c565b60006005617530670de0b6b3a76400006200011391906200061b565b6200011f91906200061b565b60026200012d91906200061b565b90506200014183826200029060201b60201c565b620001788282670de0b6b3a76400006207a1206200016091906200061b565b6200016c91906200067c565b6200029060201b60201c565b81600660006101000a81548173ffffffffffffffffffffffffffffffffffffffff021916908373ffffffffffffffffffffffffffffffffffffffff160217905550505050620007a3565b600033905090565b6000600560009054906101000a900473ffffffffffffffffffffffffffffffffffffffff16905081600560006101000a81548173ffffffffffffffffffffffffffffffffffffffff021916908373ffffffffffffffffffffffffffffffffffffffff1602179055508173ffffffffffffffffffffffffffffffffffffffff168173ffffffffffffffffffffffffffffffffffffffff167f8be0079c531659141344cd1fd0a4f28419497f9722a3daafe3b4186f6b6457e060405160405180910390a35050565b600073ffffffffffffffffffffffffffffffffffffffff168273ffffffffffffffffffffffffffffffffffffffff16141562000303576040517f08c379a0000000000000000000000000000000000000000000000000000000008152600401620002fa906200056e565b60405180910390fd5b62000317600083836200040960201b60201c565b80600260008282546200032b9190620005be565b92505081905550806000808473ffffffffffffffffffffffffffffffffffffffff1673ffffffffffffffffffffffffffffffffffffffff1681526020019081526020016000206000828254620003829190620005be565b925050819055508173ffffffffffffffffffffffffffffffffffffffff16600073ffffffffffffffffffffffffffffffffffffffff167fddf252ad1be2c89b69c2b068fc378daa952ba7f163c4a11628f55a4df523b3ef83604051620003e9919062000590565b60405180910390a362000405600083836200040e60201b60201c565b5050565b505050565b505050565b8280546200042190620006f5565b90600052602060002090601f01602090048101928262000445576000855562000491565b82601f106200046057805160ff191683800117855562000491565b8280016001018555821562000491579182015b828111156200049057825182559160200191906001019062000473565b5b509050620004a09190620004a4565b5090565b5b80821115620004bf576000816000905550600101620004a5565b5090565b600081519050620004d48162000789565b92915050565b60008060408385031215620004ee57600080fd5b6000620004fe85828601620004c3565b92505060206200051185828601620004c3565b9150509250929050565b60006200052a601f83620005ad565b91507f45524332303a206d696e7420746f20746865207a65726f2061646472657373006000830152602082019050919050565b6200056881620006eb565b82525050565b6000602082019050818103600083015262000589816200051b565b9050919050565b6000602082019050620005a760008301846200055d565b92915050565b600082825260208201905092915050565b6000620005cb82620006eb565b9150620005d883620006eb565b9250827fffffffffffffffffffffffffffffffffffffffffffffffffffffffffffffffff0382111562000610576200060f6200072b565b5b828201905092915050565b60006200062882620006eb565b91506200063583620006eb565b9250817fffffffffffffffffffffffffffffffffffffffffffffffffffffffffffffffff04831182151516156200067157620006706200072b565b5b828202905092915050565b60006200068982620006eb565b91506200069683620006eb565b925082821015620006ac57620006ab6200072b565b5b828203905092915050565b6000620006c482620006cb565b9050919050565b600073ffffffffffffffffffffffffffffffffffffffff82169050919050565b6000819050919050565b600060028204905060018216806200070e57607f821691505b602082108114156200072557620007246200075a565b5b50919050565b7f4e487b7100000000000000000000000000000000000000000000000000000000600052601160045260246000fd5b7f4e487b7100000000000000000000000000000000000000000000000000000000600052602260045260246000fd5b6200079481620006b7565b8114620007a057600080fd5b50565b611b2480620007b36000396000f3fe608060405234801561001057600080fd5b50600436106101165760003560e01c806361d027b3116100a257806395d89b411161007157806395d89b41146102d3578063a457c2d7146102f1578063a9059cbb14610321578063dd62ed3e14610351578063f2fde38b1461038157610116565b806361d027b31461025d57806370a082311461027b578063715018a6146102ab5780638da5cb5b146102b557610116565b806323b872dd116100e957806323b872dd146101a5578063313ce567146101d557806339509351146101f35780633cfd5211146102235780635392e2b61461023f57610116565b806306fdde031461011b578063095ea7b31461013957806314a8bd0d1461016957806318160ddd14610187575b600080fd5b61012361039d565b6040516101309190611688565b60405180910390f35b610153600480360381019061014e91906111c8565b61042f565b604051610160919061166d565b60405180910390f35b61017161044d565b60405161017e91906117ea565b60405180910390f35b61018f610452565b60405161019c91906117ea565b60405180910390f35b6101bf60048036038101906101ba9190611179565b61045c565b6040516101cc919061166d565b60405180910390f35b6101dd610554565b6040516101ea9190611805565b60405180910390f35b61020d600480360381019061020891906111c8565b61055d565b60405161021a919061166d565b60405180910390f35b61023d60048036038101906102389190611204565b610609565b005b6102476106a2565b604051610254919061166d565b60405180910390f35b6102656106b5565b6040516102729190611652565b60405180910390f35b61029560048036038101906102909190611114565b6106db565b6040516102a291906117ea565b60405180910390f35b6102b3610723565b005b6102bd6107ab565b6040516102ca9190611652565b60405180910390f35b6102db6107d5565b6040516102e89190611688565b60405180910390f35b61030b600480360381019061030691906111c8565b610867565b604051610318919061166d565b60405180910390f35b61033b600480360381019061033691906111c8565b610952565b604051610348919061166d565b60405180910390f35b61036b6004803603810190610366919061113d565b610970565b60405161037891906117ea565b60405180910390f35b61039b60048036038101906103969190611114565b6109f7565b005b6060600380546103ac906119d9565b80601f01602080910402602001604051908101604052809291908181526020018280546103d8906119d9565b80156104255780601f106103fa57610100808354040283529160200191610425565b820191906000526020600020905b81548152906001019060200180831161040857829003601f168201915b5050505050905090565b600061044361043c610aef565b8484610af7565b6001905092915050565b600581565b6000600254905090565b6000610469848484610cc2565b6000600160008673ffffffffffffffffffffffffffffffffffffffff1673ffffffffffffffffffffffffffffffffffffffff16815260200190815260200160002060006104b4610aef565b73ffffffffffffffffffffffffffffffffffffffff1673ffffffffffffffffffffffffffffffffffffffff16815260200190815260200160002054905082811015610534576040517f08c379a000000000000000000000000000000000000000000000000000000000815260040161052b9061174a565b60405180910390fd5b61054885610540610aef565b858403610af7565b60019150509392505050565b60006012905090565b60006105ff61056a610aef565b848460016000610578610aef565b73ffffffffffffffffffffffffffffffffffffffff1673ffffffffffffffffffffffffffffffffffffffff16815260200190815260200160002060008873ffffffffffffffffffffffffffffffffffffffff1673ffffffffffffffffffffffffffffffffffffffff168152602001908152602001600020546105fa919061183c565b610af7565b6001905092915050565b610611610aef565b73ffffffffffffffffffffffffffffffffffffffff1661062f6107ab565b73ffffffffffffffffffffffffffffffffffffffff1614610685576040517f08c379a000000000000000000000000000000000000000000000000000000000815260040161067c9061176a565b60405180910390fd5b80600560146101000a81548160ff02191690831515021790555050565b600560149054906101000a900460ff1681565b600660009054906101000a900473ffffffffffffffffffffffffffffffffffffffff1681565b60008060008373ffffffffffffffffffffffffffffffffffffffff1673ffffffffffffffffffffffffffffffffffffffff168152602001908152602001600020549050919050565b61072b610aef565b73ffffffffffffffffffffffffffffffffffffffff166107496107ab565b73ffffffffffffffffffffffffffffffffffffffff161461079f576040517f08c379a00000000000000000000000000000000000000000000000000000000081526004016107969061176a565b60405180910390fd5b6107a96000610d84565b565b6000600560009054906101000a900473ffffffffffffffffffffffffffffffffffffffff16905090565b6060600480546107e4906119d9565b80601f0160208091040260200160405190810160405280929190818152602001828054610810906119d9565b801561085d5780601f106108325761010080835404028352916020019161085d565b820191906000526020600020905b81548152906001019060200180831161084057829003601f168201915b5050505050905090565b60008060016000610876610aef565b73ffffffffffffffffffffffffffffffffffffffff1673ffffffffffffffffffffffffffffffffffffffff16815260200190815260200160002060008573ffffffffffffffffffffffffffffffffffffffff1673ffffffffffffffffffffffffffffffffffffffff16815260200190815260200160002054905082811015610933576040517f08c379a000000000000000000000000000000000000000000000000000000000815260040161092a906117ca565b60405180910390fd5b61094761093e610aef565b85858403610af7565b600191505092915050565b600061096661095f610aef565b8484610cc2565b6001905092915050565b6000600160008473ffffffffffffffffffffffffffffffffffffffff1673ffffffffffffffffffffffffffffffffffffffff16815260200190815260200160002060008373ffffffffffffffffffffffffffffffffffffffff1673ffffffffffffffffffffffffffffffffffffffff16815260200190815260200160002054905092915050565b6109ff610aef565b73ffffffffffffffffffffffffffffffffffffffff16610a1d6107ab565b73ffffffffffffffffffffffffffffffffffffffff1614610a73576040517f08c379a0000000000000000000000000000000000000000000000000000000008152600401610a6a9061176a565b60405180910390fd5b600073ffffffffffffffffffffffffffffffffffffffff168173ffffffffffffffffffffffffffffffffffffffff161415610ae3576040517f08c379a0000000000000000000000000000000000000000000000000000000008152600401610ada906116ca565b60405180910390fd5b610aec81610d84565b50565b600033905090565b600073ffffffffffffffffffffffffffffffffffffffff168373ffffffffffffffffffffffffffffffffffffffff161415610b67576040517f08c379a0000000000000000000000000000000000000000000000000000000008152600401610b5e906117aa565b60405180910390fd5b600073ffffffffffffffffffffffffffffffffffffffff168273ffffffffffffffffffffffffffffffffffffffff161415610bd7576040517f08c379a0000000000000000000000000000000000000000000000000000000008152600401610bce906116ea565b60405180910390fd5b80600160008573ffffffffffffffffffffffffffffffffffffffff1673ffffffffffffffffffffffffffffffffffffffff16815260200190815260200160002060008473ffffffffffffffffffffffffffffffffffffffff1673ffffffffffffffffffffffffffffffffffffffff168152602001908152602001600020819055508173ffffffffffffffffffffffffffffffffffffffff168373ffffffffffffffffffffffffffffffffffffffff167f8c5be1e5ebec7d5bd14f71427d1e84f3dd0314c0f7b2291e5b200ac8c7c3b92583604051610cb591906117ea565b60405180910390a3505050565b60008111610d05576040517f08c379a0000000000000000000000000000000000000000000000000000000008152600401610cfc9061172a565b60405180910390fd5b600560149054906101000a900460ff1615610d745760006064600283610d2b91906118c3565b610d359190611892565b90508082610d43919061191d565b9150610d7284600660009054906101000a900473ffffffffffffffffffffffffffffffffffffffff1683610e4a565b505b610d7f838383610e4a565b505050565b6000600560009054906101000a900473ffffffffffffffffffffffffffffffffffffffff16905081600560006101000a81548173ffffffffffffffffffffffffffffffffffffffff021916908373ffffffffffffffffffffffffffffffffffffffff1602179055508173ffffffffffffffffffffffffffffffffffffffff168173ffffffffffffffffffffffffffffffffffffffff167f8be0079c531659141344cd1fd0a4f28419497f9722a3daafe3b4186f6b6457e060405160405180910390a35050565b600073ffffffffffffffffffffffffffffffffffffffff168373ffffffffffffffffffffffffffffffffffffffff161415610eba576040517f08c379a0000000000000000000000000000000000000000000000000000000008152600401610eb19061178a565b60405180910390fd5b600073ffffffffffffffffffffffffffffffffffffffff168273ffffffffffffffffffffffffffffffffffffffff161415610f2a576040517f08c379a0000000000000000000000000000000000000000000000000000000008152600401610f21906116aa565b60405180910390fd5b610f358383836110cb565b60008060008573ffffffffffffffffffffffffffffffffffffffff1673ffffffffffffffffffffffffffffffffffffffff16815260200190815260200160002054905081811015610fbb576040517f08c379a0000000000000000000000000000000000000000000000000000000008152600401610fb29061170a565b60405180910390fd5b8181036000808673ffffffffffffffffffffffffffffffffffffffff1673ffffffffffffffffffffffffffffffffffffffff16815260200190815260200160002081905550816000808573ffffffffffffffffffffffffffffffffffffffff1673ffffffffffffffffffffffffffffffffffffffff168152602001908152602001600020600082825461104e919061183c565b925050819055508273ffffffffffffffffffffffffffffffffffffffff168473ffffffffffffffffffffffffffffffffffffffff167fddf252ad1be2c89b69c2b068fc378daa952ba7f163c4a11628f55a4df523b3ef846040516110b291906117ea565b60405180910390a36110c58484846110d0565b50505050565b505050565b505050565b6000813590506110e481611aa9565b92915050565b6000813590506110f981611ac0565b92915050565b60008135905061110e81611ad7565b92915050565b60006020828403121561112657600080fd5b6000611134848285016110d5565b91505092915050565b6000806040838503121561115057600080fd5b600061115e858286016110d5565b925050602061116f858286016110d5565b9150509250929050565b60008060006060848603121561118e57600080fd5b600061119c868287016110d5565b93505060206111ad868287016110d5565b92505060406111be868287016110ff565b9150509250925092565b600080604083850312156111db57600080fd5b60006111e9858286016110d5565b92505060206111fa858286016110ff565b9150509250929050565b60006020828403121561121657600080fd5b6000611224848285016110ea565b91505092915050565b61123681611951565b82525050565b61124581611963565b82525050565b600061125682611820565b611260818561182b565b93506112708185602086016119a6565b61127981611a98565b840191505092915050565b600061129160238361182b565b91507f45524332303a207472616e7366657220746f20746865207a65726f206164647260008301527f65737300000000000000000000000000000000000000000000000000000000006020830152604082019050919050565b60006112f760268361182b565b91507f4f776e61626c653a206e6577206f776e657220697320746865207a65726f206160008301527f64647265737300000000000000000000000000000000000000000000000000006020830152604082019050919050565b600061135d60228361182b565b91507f45524332303a20617070726f766520746f20746865207a65726f20616464726560008301527f73730000000000000000000000000000000000000000000000000000000000006020830152604082019050919050565b60006113c360268361182b565b91507f45524332303a207472616e7366657220616d6f756e742065786365656473206260008301527f616c616e636500000000000000000000000000000000000000000000000000006020830152604082019050919050565b6000611429600e8361182b565b91507f416d6f756e74206973207a65726f0000000000000000000000000000000000006000830152602082019050919050565b600061146960288361182b565b91507f45524332303a207472616e7366657220616d6f756e742065786365656473206160008301527f6c6c6f77616e63650000000000000000000000000000000000000000000000006020830152604082019050919050565b60006114cf60208361182b565b91507f4f776e61626c653a2063616c6c6572206973206e6f7420746865206f776e65726000830152602082019050919050565b600061150f60258361182b565b91507f45524332303a207472616e736665722066726f6d20746865207a65726f20616460008301527f64726573730000000000000000000000000000000000000000000000000000006020830152604082019050919050565b600061157560248361182b565b91507f45524332303a20617070726f76652066726f6d20746865207a65726f2061646460008301527f72657373000000000000000000000000000000000000000000000000000000006020830152604082019050919050565b60006115db60258361182b565b91507f45524332303a2064656372656173656420616c6c6f77616e63652062656c6f7760008301527f207a65726f0000000000000000000000000000000000000000000000000000006020830152604082019050919050565b61163d8161198f565b82525050565b61164c81611999565b82525050565b6000602082019050611667600083018461122d565b92915050565b6000602082019050611682600083018461123c565b92915050565b600060208201905081810360008301526116a2818461124b565b905092915050565b600060208201905081810360008301526116c381611284565b9050919050565b600060208201905081810360008301526116e3816112ea565b9050919050565b6000602082019050818103600083015261170381611350565b9050919050565b60006020820190508181036000830152611723816113b6565b9050919050565b600060208201905081810360008301526117438161141c565b9050919050565b600060208201905081810360008301526117638161145c565b9050919050565b60006020820190508181036000830152611783816114c2565b9050919050565b600060208201905081810360008301526117a381611502565b9050919050565b600060208201905081810360008301526117c381611568565b9050919050565b600060208201905081810360008301526117e3816115ce565b9050919050565b60006020820190506117ff6000830184611634565b92915050565b600060208201905061181a6000830184611643565b92915050565b600081519050919050565b600082825260208201905092915050565b60006118478261198f565b91506118528361198f565b9250827fffffffffffffffffffffffffffffffffffffffffffffffffffffffffffffffff0382111561188757611886611a0b565b5b828201905092915050565b600061189d8261198f565b91506118a88361198f565b9250826118b8576118b7611a3a565b5b828204905092915050565b60006118ce8261198f565b91506118d98361198f565b9250817fffffffffffffffffffffffffffffffffffffffffffffffffffffffffffffffff048311821515161561191257611911611a0b565b5b828202905092915050565b60006119288261198f565b91506119338361198f565b92508282101561194657611945611a0b565b5b828203905092915050565b600061195c8261196f565b9050919050565b60008115159050919050565b600073ffffffffffffffffffffffffffffffffffffffff82169050919050565b6000819050919050565b600060ff82169050919050565b60005b838110156119c45780820151818401526020810190506119a9565b838111156119d3576000848401525b50505050565b600060028204905060018216806119f157607f821691505b60208210811415611a0557611a04611a69565b5b50919050565b7f4e487b7100000000000000000000000000000000000000000000000000000000600052601160045260246000fd5b7f4e487b7100000000000000000000000000000000000000000000000000000000600052601260045260246000fd5b7f4e487b7100000000000000000000000000000000000000000000000000000000600052602260045260246000fd5b6000601f19601f8301169050919050565b611ab281611951565b8114611abd57600080fd5b50565b611ac981611963565b8114611ad457600080fd5b50565b611ae08161198f565b8114611aeb57600080fd5b5056fea264697066735822122038b26ee7f648f833ffb5586c398a72364b840c20657c0b19b21409cfd8d663b164736f6c63430008000033",
  "linkReferences": {},
  "deployedLinkReferences": {}
}