{
  "_format": "hh-sol-artifact-1",
  "contractName": "Pool",
  "sourceName": "contracts/Pool.sol",
  "abi": [
    {
      "inputs": [],
      "stateMutability": "nonpayable",
      "type": "constructor"
    },
    {
      "anonymous": false,
      "inputs": [
        {
          "indexed": true,
          "internalType": "address",
          "name": "owner",
          "type": "address"
        },
        {
          "indexed": true,
          "internalType": "address",
          "name": "spender",
          "type": "address"
        },
        {
          "indexed": false,
          "internalType": "uint256",
          "name": "value",
          "type": "uint256"
        }
      ],
      "name": "Approval",
      "type": "event"
    },
    {
      "anonymous": false,
      "inputs": [
        {
          "indexed": true,
          "internalType": "address",
          "name": "sender",
          "type": "address"
        },
        {
          "indexed": false,
          "internalType": "uint256",
          "name": "amount0",
          "type": "uint256"
        },
        {
          "indexed": false,
          "internalType": "uint256",
          "name": "amount1",
          "type": "uint256"
        },
        {
          "indexed": true,
          "internalType": "address",
          "name": "to",
          "type": "address"
        }
      ],
      "name": "Burn",
      "type": "event"
    },
    {
      "anonymous": false,
      "inputs": [
        {
          "indexed": true,
          "internalType": "address",
          "name": "sender",
          "type": "address"
        },
        {
          "indexed": false,
          "internalType": "uint256",
          "name": "amount0",
          "type": "uint256"
        },
        {
          "indexed": false,
          "internalType": "uint256",
          "name": "amount1",
          "type": "uint256"
        }
      ],
      "name": "Mint",
      "type": "event"
    },
    {
      "anonymous": false,
      "inputs": [
        {
          "indexed": false,
          "internalType": "uint112",
          "name": "reserve0",
          "type": "uint112"
        },
        {
          "indexed": false,
          "internalType": "uint112",
          "name": "reserve1",
          "type": "uint112"
        }
      ],
      "name": "Sync",
      "type": "event"
    },
    {
      "anonymous": false,
      "inputs": [
        {
          "indexed": true,
          "internalType": "address",
          "name": "from",
          "type": "address"
        },
        {
          "indexed": true,
          "internalType": "address",
          "name": "to",
          "type": "address"
        },
        {
          "indexed": false,
          "internalType": "uint256",
          "name": "value",
          "type": "uint256"
        }
      ],
      "name": "Transfer",
      "type": "event"
    },
    {
      "inputs": [],
      "name": "MINIMUM_LIQUIDITY",
      "outputs": [
        {
          "internalType": "uint256",
          "name": "",
          "type": "uint256"
        }
      ],
      "stateMutability": "view",
      "type": "function"
    },
    {
      "inputs": [
        {
          "internalType": "address",
          "name": "owner",
          "type": "address"
        },
        {
          "internalType": "address",
          "name": "spender",
          "type": "address"
        }
      ],
      "name": "allowance",
      "outputs": [
        {
          "internalType": "uint256",
          "name": "",
          "type": "uint256"
        }
      ],
      "stateMutability": "view",
      "type": "function"
    },
    {
      "inputs": [
        {
          "internalType": "address",
          "name": "spender",
          "type": "address"
        },
        {
          "internalType": "uint256",
          "name": "amount",
          "type": "uint256"
        }
      ],
      "name": "approve",
      "outputs": [
        {
          "internalType": "bool",
          "name": "",
          "type": "bool"
        }
      ],
      "stateMutability": "nonpayable",
      "type": "function"
    },
    {
      "inputs": [
        {
          "internalType": "address",
          "name": "account",
          "type": "address"
        }
      ],
      "name": "balanceOf",
      "outputs": [
        {
          "internalType": "uint256",
          "name": "",
          "type": "uint256"
        }
      ],
      "stateMutability": "view",
      "type": "function"
    },
    {
      "inputs": [
        {
          "internalType": "address",
          "name": "to",
          "type": "address"
        }
      ],
      "name": "burn",
      "outputs": [
        {
          "internalType": "uint256",
          "name": "amount0",
          "type": "uint256"
        },
        {
          "internalType": "uint256",
          "name": "amount1",
          "type": "uint256"
        }
      ],
      "stateMutability": "nonpayable",
      "type": "function"
    },
    {
      "inputs": [],
      "name": "decimals",
      "outputs": [
        {
          "internalType": "uint8",
          "name": "",
          "type": "uint8"
        }
      ],
      "stateMutability": "view",
      "type": "function"
    },
    {
      "inputs": [
        {
          "internalType": "address",
          "name": "spender",
          "type": "address"
        },
        {
          "internalType": "uint256",
          "name": "subtractedValue",
          "type": "uint256"
        }
      ],
      "name": "decreaseAllowance",
      "outputs": [
        {
          "internalType": "bool",
          "name": "",
          "type": "bool"
        }
      ],
      "stateMutability": "nonpayable",
      "type": "function"
    },
    {
      "inputs": [],
      "name": "getReserves",
      "outputs": [
        {
          "internalType": "uint112",
          "name": "_reserve0",
          "type": "uint112"
        },
        {
          "internalType": "uint112",
          "name": "_reserve1",
          "type": "uint112"
        }
      ],
      "stateMutability": "view",
      "type": "function"
    },
    {
      "inputs": [
        {
          "internalType": "address",
          "name": "spender",
          "type": "address"
        },
        {
          "internalType": "uint256",
          "name": "addedValue",
          "type": "uint256"
        }
      ],
      "name": "increaseAllowance",
      "outputs": [
        {
          "internalType": "bool",
          "name": "",
          "type": "bool"
        }
      ],
      "stateMutability": "nonpayable",
      "type": "function"
    },
    {
      "inputs": [
        {
          "internalType": "address",
          "name": "_spaceCoin",
          "type": "address"
        }
      ],
      "name": "initialize",
      "outputs": [],
      "stateMutability": "nonpayable",
      "type": "function"
    },
    {
      "inputs": [
        {
          "internalType": "address",
          "name": "to",
          "type": "address"
        }
      ],
      "name": "mint",
      "outputs": [
        {
          "internalType": "uint256",
          "name": "liquidity",
          "type": "uint256"
        }
      ],
      "stateMutability": "nonpayable",
      "type": "function"
    },
    {
      "inputs": [],
      "name": "name",
      "outputs": [
        {
          "internalType": "string",
          "name": "",
          "type": "string"
        }
      ],
      "stateMutability": "view",
      "type": "function"
    },
    {
      "inputs": [],
      "name": "spaceCoin",
      "outputs": [
        {
          "internalType": "address",
          "name": "",
          "type": "address"
        }
      ],
      "stateMutability": "view",
      "type": "function"
    },
    {
      "inputs": [
        {
          "internalType": "uint256",
          "name": "amountOut",
          "type": "uint256"
        },
        {
          "internalType": "address",
          "name": "to",
          "type": "address"
        },
        {
          "internalType": "uint256",
          "name": "value",
          "type": "uint256"
        }
      ],
      "name": "swap",
      "outputs": [],
      "stateMutability": "nonpayable",
      "type": "function"
    },
    {
      "inputs": [],
      "name": "symbol",
      "outputs": [
        {
          "internalType": "string",
          "name": "",
          "type": "string"
        }
      ],
      "stateMutability": "view",
      "type": "function"
    },
    {
      "inputs": [],
      "name": "totalSupply",
      "outputs": [
        {
          "internalType": "uint256",
          "name": "",
          "type": "uint256"
        }
      ],
      "stateMutability": "view",
      "type": "function"
    },
    {
      "inputs": [
        {
          "internalType": "address",
          "name": "recipient",
          "type": "address"
        },
        {
          "internalType": "uint256",
          "name": "amount",
          "type": "uint256"
        }
      ],
      "name": "transfer",
      "outputs": [
        {
          "internalType": "bool",
          "name": "",
          "type": "bool"
        }
      ],
      "stateMutability": "nonpayable",
      "type": "function"
    },
    {
      "inputs": [
        {
          "internalType": "address",
          "name": "sender",
          "type": "address"
        },
        {
          "internalType": "address",
          "name": "recipient",
          "type": "address"
        },
        {
          "internalType": "uint256",
          "name": "amount",
          "type": "uint256"
        }
      ],
      "name": "transferFrom",
      "outputs": [
        {
          "internalType": "bool",
          "name": "",
          "type": "bool"
        }
      ],
      "stateMutability": "nonpayable",
      "type": "function"
    },
    {
      "stateMutability": "payable",
      "type": "receive"
    }
  ],
  "bytecode": "0x608060405260016007553480156200001657600080fd5b506040518060400160405280600e81526020017f5370616365204c5020546f6b656e0000000000000000000000000000000000008152506040518060400160405280600581526020017f5350434c5000000000000000000000000000000000000000000000000000000081525081600390805190602001906200009b929190620000bd565b508060049080519060200190620000b4929190620000bd565b505050620001d2565b828054620000cb906200016d565b90600052602060002090601f016020900481019282620000ef57600085556200013b565b82601f106200010a57805160ff19168380011785556200013b565b828001600101855582156200013b579182015b828111156200013a5782518255916020019190600101906200011d565b5b5090506200014a91906200014e565b5090565b5b80821115620001695760008160009055506001016200014f565b5090565b600060028204905060018216806200018657607f821691505b602082108114156200019d576200019c620001a3565b5b50919050565b7f4e487b7100000000000000000000000000000000000000000000000000000000600052602260045260246000fd5b61308780620001e26000396000f3fe60806040526004361061010d5760003560e01c806370a0823111610095578063a9059cbb11610064578063a9059cbb146103c6578063ba9a7a5614610403578063c4d66de81461042e578063dd62ed3e14610457578063e48575d41461049457610114565b806370a08231146102e357806389afcb441461032057806395d89b411461035e578063a457c2d71461038957610114565b806323b872dd116100dc57806323b872dd146101d8578063313ce567146102155780633950935114610240578063432643491461027d5780636a627842146102a657610114565b806306fdde03146101195780630902f1ac14610144578063095ea7b31461017057806318160ddd146101ad57610114565b3661011457005b600080fd5b34801561012557600080fd5b5061012e6104bf565b60405161013b9190612a29565b60405180910390f35b34801561015057600080fd5b50610159610551565b604051610167929190612ccb565b60405180910390f35b34801561017c57600080fd5b5061019760048036038101906101929190612176565b610596565b6040516101a49190612a0e565b60405180910390f35b3480156101b957600080fd5b506101c26105b4565b6040516101cf9190612cf4565b60405180910390f35b3480156101e457600080fd5b506101ff60048036038101906101fa9190612127565b6105be565b60405161020c9190612a0e565b60405180910390f35b34801561022157600080fd5b5061022a6106b6565b6040516102379190612d38565b60405180910390f35b34801561024c57600080fd5b5061026760048036038101906102629190612176565b6106bf565b6040516102749190612a0e565b60405180910390f35b34801561028957600080fd5b506102a4600480360381019061029f9190612204565b61076b565b005b3480156102b257600080fd5b506102cd60048036038101906102c891906120c2565b610a97565b6040516102da9190612cf4565b60405180910390f35b3480156102ef57600080fd5b5061030a600480360381019061030591906120c2565b610d3a565b6040516103179190612cf4565b60405180910390f35b34801561032c57600080fd5b50610347600480360381019061034291906120c2565b610d82565b604051610355929190612d0f565b60405180910390f35b34801561036a57600080fd5b50610373611161565b6040516103809190612a29565b60405180910390f35b34801561039557600080fd5b506103b060048036038101906103ab9190612176565b6111f3565b6040516103bd9190612a0e565b60405180910390f35b3480156103d257600080fd5b506103ed60048036038101906103e89190612176565b6112de565b6040516103fa9190612a0e565b60405180910390f35b34801561040f57600080fd5b506104186112fc565b6040516104259190612cf4565b60405180910390f35b34801561043a57600080fd5b50610455600480360381019061045091906120c2565b611302565b005b34801561046357600080fd5b5061047e600480360381019061047991906120eb565b6113d7565b60405161048b9190612cf4565b60405180910390f35b3480156104a057600080fd5b506104a961145e565b6040516104b691906129ca565b60405180910390f35b6060600380546104ce90612f3c565b80601f01602080910402602001604051908101604052809291908181526020018280546104fa90612f3c565b80156105475780601f1061051c57610100808354040283529160200191610547565b820191906000526020600020905b81548152906001019060200180831161052a57829003601f168201915b5050505050905090565b600080600660009054906101000a90046dffffffffffffffffffffffffffff1691506006600e9054906101000a90046dffffffffffffffffffffffffffff1690509091565b60006105aa6105a3611484565b848461148c565b6001905092915050565b6000600254905090565b60006105cb848484611657565b6000600160008673ffffffffffffffffffffffffffffffffffffffff1673ffffffffffffffffffffffffffffffffffffffff1681526020019081526020016000206000610616611484565b73ffffffffffffffffffffffffffffffffffffffff1673ffffffffffffffffffffffffffffffffffffffff16815260200190815260200160002054905082811015610696576040517f08c379a000000000000000000000000000000000000000000000000000000000815260040161068d90612b4b565b60405180910390fd5b6106aa856106a2611484565b85840361148c565b60019150509392505050565b60006012905090565b60006107616106cc611484565b8484600160006106da611484565b73ffffffffffffffffffffffffffffffffffffffff1673ffffffffffffffffffffffffffffffffffffffff16815260200190815260200160002060008873ffffffffffffffffffffffffffffffffffffffff1673ffffffffffffffffffffffffffffffffffffffff1681526020019081526020016000205461075c9190612d85565b61148c565b6001905092915050565b6001600754146107b0576040517f08c379a00000000000000000000000000000000000000000000000000000000081526004016107a790612c6b565b60405180910390fd5b6000600781905550600083116107fb576040517f08c379a00000000000000000000000000000000000000000000000000000000081526004016107f290612beb565b60405180910390fd5b6000808211156108175761080d610551565b5080915050610826565b61081f610551565b9050809150505b806dffffffffffffffffffffffffffff168410610878576040517f08c379a000000000000000000000000000000000000000000000000000000000815260040161086f90612c4b565b60405180910390fd5b6000806000600560009054906101000a900473ffffffffffffffffffffffffffffffffffffffff1690508073ffffffffffffffffffffffffffffffffffffffff168673ffffffffffffffffffffffffffffffffffffffff161415610911576040517f08c379a000000000000000000000000000000000000000000000000000000000815260040161090890612b0b565b60405180910390fd5b60008511156109b75760008711156109b2578073ffffffffffffffffffffffffffffffffffffffff1663a9059cbb87896040518363ffffffff1660e01b815260040161095e9291906129e5565b602060405180830381600087803b15801561097857600080fd5b505af115801561098c573d6000803e3d6000fd5b505050506040513d601f19601f820116820180604052508101906109b091906121b2565b505b6109cc565b60008711156109cb576109ca86886118d8565b5b5b600560009054906101000a900473ffffffffffffffffffffffffffffffffffffffff1673ffffffffffffffffffffffffffffffffffffffff166370a08231306040518263ffffffff1660e01b8152600401610a2791906129ca565b60206040518083038186803b158015610a3f57600080fd5b505afa158015610a53573d6000803e3d6000fd5b505050506040513d601f19601f82011682018060405250810190610a7791906121db565b925047915050610a8782826119fe565b5050506001600781905550505050565b6000600160075414610ade576040517f08c379a0000000000000000000000000000000000000000000000000000000008152600401610ad590612c6b565b60405180910390fd5b6000600781905550600080610af1610551565b915091506000600560009054906101000a900473ffffffffffffffffffffffffffffffffffffffff1673ffffffffffffffffffffffffffffffffffffffff166370a08231306040518263ffffffff1660e01b8152600401610b5291906129ca565b60206040518083038186803b158015610b6a57600080fd5b505afa158015610b7e573d6000803e3d6000fd5b505050506040513d601f19601f82011682018060405250810190610ba291906121db565b905060004790506000846dffffffffffffffffffffffffffff1683610bc79190612e66565b90506000846dffffffffffffffffffffffffffff1683610be79190612e66565b90506000610bf36105b4565b90506000811415610c26576103e8610c158385610c109190612e0c565b611b48565b610c1f9190612e66565b9750610c7f565b610c7c876dffffffffffffffffffffffffffff168285610c469190612e0c565b610c509190612ddb565b876dffffffffffffffffffffffffffff168385610c6d9190612e0c565b610c779190612ddb565b611d14565b97505b60008811610cc2576040517f08c379a0000000000000000000000000000000000000000000000000000000008152600401610cb990612aeb565b60405180910390fd5b610ccc8989611d2d565b610cd685856119fe565b3373ffffffffffffffffffffffffffffffffffffffff167f4c209b5fc8ad50758f13e2e1088ba56a560dff690a1c6fef26394f4c03821c4f8484604051610d1e929190612d0f565b60405180910390a2505050505050506001600781905550919050565b60008060008373ffffffffffffffffffffffffffffffffffffffff1673ffffffffffffffffffffffffffffffffffffffff168152602001908152602001600020549050919050565b600080600160075414610dca576040517f08c379a0000000000000000000000000000000000000000000000000000000008152600401610dc190612c6b565b60405180910390fd5b60006007819055506000610ddd30610d3a565b90506000610de96105b4565b905080600660009054906101000a90046dffffffffffffffffffffffffffff166dffffffffffffffffffffffffffff1683610e249190612e0c565b610e2e9190612ddb565b9350806006600e9054906101000a90046dffffffffffffffffffffffffffff166dffffffffffffffffffffffffffff1683610e699190612e0c565b610e739190612ddb565b9250600084118015610e855750600083115b610ec4576040517f08c379a0000000000000000000000000000000000000000000000000000000008152600401610ebb90612b6b565b60405180910390fd5b610ece3083611e8d565b600560009054906101000a900473ffffffffffffffffffffffffffffffffffffffff1673ffffffffffffffffffffffffffffffffffffffff1663a9059cbb86866040518363ffffffff1660e01b8152600401610f2b9291906129e5565b602060405180830381600087803b158015610f4557600080fd5b505af1158015610f59573d6000803e3d6000fd5b505050506040513d601f19601f82011682018060405250810190610f7d91906121b2565b5060008573ffffffffffffffffffffffffffffffffffffffff1684604051610fa4906129b5565b60006040518083038185875af1925050503d8060008114610fe1576040519150601f19603f3d011682016040523d82523d6000602084013e610fe6565b606091505b505090508061102a576040517f08c379a000000000000000000000000000000000000000000000000000000000815260040161102190612b2b565b60405180910390fd5b60004790506000600560009054906101000a900473ffffffffffffffffffffffffffffffffffffffff1673ffffffffffffffffffffffffffffffffffffffff166370a08231306040518263ffffffff1660e01b815260040161108c91906129ca565b60206040518083038186803b1580156110a457600080fd5b505afa1580156110b8573d6000803e3d6000fd5b505050506040513d601f19601f820116820180604052508101906110dc91906121db565b90506110e882826119fe565b8773ffffffffffffffffffffffffffffffffffffffff163373ffffffffffffffffffffffffffffffffffffffff167fdccd412f0b1252819cb1fd330b93224ca42612892bb3f4f789976e6d819364968989604051611147929190612d0f565b60405180910390a350505050506001600781905550915091565b60606004805461117090612f3c565b80601f016020809104026020016040519081016040528092919081815260200182805461119c90612f3c565b80156111e95780601f106111be576101008083540402835291602001916111e9565b820191906000526020600020905b8154815290600101906020018083116111cc57829003601f168201915b5050505050905090565b60008060016000611202611484565b73ffffffffffffffffffffffffffffffffffffffff1673ffffffffffffffffffffffffffffffffffffffff16815260200190815260200160002060008573ffffffffffffffffffffffffffffffffffffffff1673ffffffffffffffffffffffffffffffffffffffff168152602001908152602001600020549050828110156112bf576040517f08c379a00000000000000000000000000000000000000000000000000000000081526004016112b690612c8b565b60405180910390fd5b6112d36112ca611484565b8585840361148c565b600191505092915050565b60006112f26112eb611484565b8484611657565b6001905092915050565b6103e881565b600073ffffffffffffffffffffffffffffffffffffffff16600560009054906101000a900473ffffffffffffffffffffffffffffffffffffffff1673ffffffffffffffffffffffffffffffffffffffff1614611393576040517f08c379a000000000000000000000000000000000000000000000000000000000815260040161138a90612bab565b60405180910390fd5b80600560006101000a81548173ffffffffffffffffffffffffffffffffffffffff021916908373ffffffffffffffffffffffffffffffffffffffff16021790555050565b6000600160008473ffffffffffffffffffffffffffffffffffffffff1673ffffffffffffffffffffffffffffffffffffffff16815260200190815260200160002060008373ffffffffffffffffffffffffffffffffffffffff1673ffffffffffffffffffffffffffffffffffffffff16815260200190815260200160002054905092915050565b600560009054906101000a900473ffffffffffffffffffffffffffffffffffffffff1681565b600033905090565b600073ffffffffffffffffffffffffffffffffffffffff168373ffffffffffffffffffffffffffffffffffffffff1614156114fc576040517f08c379a00000000000000000000000000000000000000000000000000000000081526004016114f390612c0b565b60405180910390fd5b600073ffffffffffffffffffffffffffffffffffffffff168273ffffffffffffffffffffffffffffffffffffffff16141561156c576040517f08c379a000000000000000000000000000000000000000000000000000000000815260040161156390612a8b565b60405180910390fd5b80600160008573ffffffffffffffffffffffffffffffffffffffff1673ffffffffffffffffffffffffffffffffffffffff16815260200190815260200160002060008473ffffffffffffffffffffffffffffffffffffffff1673ffffffffffffffffffffffffffffffffffffffff168152602001908152602001600020819055508173ffffffffffffffffffffffffffffffffffffffff168373ffffffffffffffffffffffffffffffffffffffff167f8c5be1e5ebec7d5bd14f71427d1e84f3dd0314c0f7b2291e5b200ac8c7c3b9258360405161164a9190612cf4565b60405180910390a3505050565b600073ffffffffffffffffffffffffffffffffffffffff168373ffffffffffffffffffffffffffffffffffffffff1614156116c7576040517f08c379a00000000000000000000000000000000000000000000000000000000081526004016116be90612bcb565b60405180910390fd5b600073ffffffffffffffffffffffffffffffffffffffff168273ffffffffffffffffffffffffffffffffffffffff161415611737576040517f08c379a000000000000000000000000000000000000000000000000000000000815260040161172e90612a4b565b60405180910390fd5b611742838383612064565b60008060008573ffffffffffffffffffffffffffffffffffffffff1673ffffffffffffffffffffffffffffffffffffffff168152602001908152602001600020549050818110156117c8576040517f08c379a00000000000000000000000000000000000000000000000000000000081526004016117bf90612aab565b60405180910390fd5b8181036000808673ffffffffffffffffffffffffffffffffffffffff1673ffffffffffffffffffffffffffffffffffffffff16815260200190815260200160002081905550816000808573ffffffffffffffffffffffffffffffffffffffff1673ffffffffffffffffffffffffffffffffffffffff168152602001908152602001600020600082825461185b9190612d85565b925050819055508273ffffffffffffffffffffffffffffffffffffffff168473ffffffffffffffffffffffffffffffffffffffff167fddf252ad1be2c89b69c2b068fc378daa952ba7f163c4a11628f55a4df523b3ef846040516118bf9190612cf4565b60405180910390a36118d2848484612069565b50505050565b60008273ffffffffffffffffffffffffffffffffffffffff1682600067ffffffffffffffff811115611933577f4e487b7100000000000000000000000000000000000000000000000000000000600052604160045260246000fd5b6040519080825280601f01601f1916602001820160405280156119655781602001600182028036833780820191505090505b50604051611973919061299e565b60006040518083038185875af1925050503d80600081146119b0576040519150601f19603f3d011682016040523d82523d6000602084013e6119b5565b606091505b50509050806119f9576040517f08c379a00000000000000000000000000000000000000000000000000000000081526004016119f090612acb565b60405180910390fd5b505050565b6dffffffffffffffffffffffffffff8211158015611a2a57506dffffffffffffffffffffffffffff8111155b611a69576040517f08c379a0000000000000000000000000000000000000000000000000000000008152600401611a6090612c2b565b60405180910390fd5b81600660006101000a8154816dffffffffffffffffffffffffffff02191690836dffffffffffffffffffffffffffff160217905550806006600e6101000a8154816dffffffffffffffffffffffffffff02191690836dffffffffffffffffffffffffffff1602179055507f1c411e9a96e071241c2f21f7726b17ae89e3cab4c78be50e062b03a9fffbbad1600660009054906101000a90046dffffffffffffffffffffffffffff166006600e9054906101000a90046dffffffffffffffffffffffffffff16604051611b3c929190612ccb565b60405180910390a15050565b600080821415611b5b5760009050611d0f565b60008290506000600190507001000000000000000000000000000000008210611b8d57608082901c9150604081901b90505b680100000000000000008210611bac57604082901c9150602081901b90505b6401000000008210611bc757602082901c9150601081901b90505b620100008210611be057601082901c9150600881901b90505b6101008210611bf857600882901c9150600481901b90505b60108210611c0f57600482901c9150600281901b90505b60088210611c1f57600181901b90505b60018185611c2d9190612ddb565b82611c389190612d85565b901c905060018185611c4a9190612ddb565b82611c559190612d85565b901c905060018185611c679190612ddb565b82611c729190612d85565b901c905060018185611c849190612ddb565b82611c8f9190612d85565b901c905060018185611ca19190612ddb565b82611cac9190612d85565b901c905060018185611cbe9190612ddb565b82611cc99190612d85565b901c905060018185611cdb9190612ddb565b82611ce69190612d85565b901c905060008185611cf89190612ddb565b9050808210611d075780611d09565b815b93505050505b919050565b6000818310611d235781611d25565b825b905092915050565b600073ffffffffffffffffffffffffffffffffffffffff168273ffffffffffffffffffffffffffffffffffffffff161415611d9d576040517f08c379a0000000000000000000000000000000000000000000000000000000008152600401611d9490612cab565b60405180910390fd5b611da960008383612064565b8060026000828254611dbb9190612d85565b92505081905550806000808473ffffffffffffffffffffffffffffffffffffffff1673ffffffffffffffffffffffffffffffffffffffff1681526020019081526020016000206000828254611e109190612d85565b925050819055508173ffffffffffffffffffffffffffffffffffffffff16600073ffffffffffffffffffffffffffffffffffffffff167fddf252ad1be2c89b69c2b068fc378daa952ba7f163c4a11628f55a4df523b3ef83604051611e759190612cf4565b60405180910390a3611e8960008383612069565b5050565b600073ffffffffffffffffffffffffffffffffffffffff168273ffffffffffffffffffffffffffffffffffffffff161415611efd576040517f08c379a0000000000000000000000000000000000000000000000000000000008152600401611ef490612b8b565b60405180910390fd5b611f0982600083612064565b60008060008473ffffffffffffffffffffffffffffffffffffffff1673ffffffffffffffffffffffffffffffffffffffff16815260200190815260200160002054905081811015611f8f576040517f08c379a0000000000000000000000000000000000000000000000000000000008152600401611f8690612a6b565b60405180910390fd5b8181036000808573ffffffffffffffffffffffffffffffffffffffff1673ffffffffffffffffffffffffffffffffffffffff168152602001908152602001600020819055508160026000828254611fe69190612e66565b92505081905550600073ffffffffffffffffffffffffffffffffffffffff168373ffffffffffffffffffffffffffffffffffffffff167fddf252ad1be2c89b69c2b068fc378daa952ba7f163c4a11628f55a4df523b3ef8460405161204b9190612cf4565b60405180910390a361205f83600084612069565b505050565b505050565b505050565b60008135905061207d8161300c565b92915050565b60008151905061209281613023565b92915050565b6000813590506120a78161303a565b92915050565b6000815190506120bc8161303a565b92915050565b6000602082840312156120d457600080fd5b60006120e28482850161206e565b91505092915050565b600080604083850312156120fe57600080fd5b600061210c8582860161206e565b925050602061211d8582860161206e565b9150509250929050565b60008060006060848603121561213c57600080fd5b600061214a8682870161206e565b935050602061215b8682870161206e565b925050604061216c86828701612098565b9150509250925092565b6000806040838503121561218957600080fd5b60006121978582860161206e565b92505060206121a885828601612098565b9150509250929050565b6000602082840312156121c457600080fd5b60006121d284828501612083565b91505092915050565b6000602082840312156121ed57600080fd5b60006121fb848285016120ad565b91505092915050565b60008060006060848603121561221957600080fd5b600061222786828701612098565b93505060206122388682870161206e565b925050604061224986828701612098565b9150509250925092565b61225c81612e9a565b82525050565b61226b81612eac565b82525050565b600061227c82612d53565b6122868185612d69565b9350612296818560208601612f09565b80840191505092915050565b60006122ad82612d5e565b6122b78185612d74565b93506122c7818560208601612f09565b6122d081612ffb565b840191505092915050565b60006122e8602383612d74565b91507f45524332303a207472616e7366657220746f20746865207a65726f206164647260008301527f65737300000000000000000000000000000000000000000000000000000000006020830152604082019050919050565b600061234e602283612d74565b91507f45524332303a206275726e20616d6f756e7420657863656564732062616c616e60008301527f63650000000000000000000000000000000000000000000000000000000000006020830152604082019050919050565b60006123b4602283612d74565b91507f45524332303a20617070726f766520746f20746865207a65726f20616464726560008301527f73730000000000000000000000000000000000000000000000000000000000006020830152604082019050919050565b600061241a602683612d74565b91507f45524332303a207472616e7366657220616d6f756e742065786365656473206260008301527f616c616e636500000000000000000000000000000000000000000000000000006020830152604082019050919050565b6000612480603483612d74565b91507f5472616e7366657248656c7065723a3a736166655472616e736665724554483a60008301527f20455448207472616e73666572206661696c65640000000000000000000000006020830152604082019050919050565b60006124e6601d83612d74565b91507f494e53554646494349454e545f4c49515549444954595f4d494e5445440000006000830152602082019050919050565b6000612526600a83612d74565b91507f494e56414c49445f544f000000000000000000000000000000000000000000006000830152602082019050919050565b6000612566600f83612d74565b91507f57495448445241575f4641494c454400000000000000000000000000000000006000830152602082019050919050565b60006125a6602883612d74565b91507f45524332303a207472616e7366657220616d6f756e742065786365656473206160008301527f6c6c6f77616e63650000000000000000000000000000000000000000000000006020830152604082019050919050565b600061260c601d83612d74565b91507f494e53554646494349454e545f4c49515549444954595f4255524e45440000006000830152602082019050919050565b600061264c602183612d74565b91507f45524332303a206275726e2066726f6d20746865207a65726f2061646472657360008301527f73000000000000000000000000000000000000000000000000000000000000006020830152604082019050919050565b60006126b2600a83612d74565b91507f57524954455f4f4e4345000000000000000000000000000000000000000000006000830152602082019050919050565b60006126f2602583612d74565b91507f45524332303a207472616e736665722066726f6d20746865207a65726f20616460008301527f64726573730000000000000000000000000000000000000000000000000000006020830152604082019050919050565b6000612758601a83612d74565b91507f494e53554646494349454e545f4f55545055545f414d4f554e540000000000006000830152602082019050919050565b6000612798600083612d69565b9150600082019050919050565b60006127b2602483612d74565b91507f45524332303a20617070726f76652066726f6d20746865207a65726f2061646460008301527f72657373000000000000000000000000000000000000000000000000000000006020830152604082019050919050565b6000612818600883612d74565b91507f4f564552464c4f570000000000000000000000000000000000000000000000006000830152602082019050919050565b6000612858601683612d74565b91507f494e53554646494349454e545f4c4951554944495459000000000000000000006000830152602082019050919050565b6000612898600683612d74565b91507f4c4f434b454400000000000000000000000000000000000000000000000000006000830152602082019050919050565b60006128d8602583612d74565b91507f45524332303a2064656372656173656420616c6c6f77616e63652062656c6f7760008301527f207a65726f0000000000000000000000000000000000000000000000000000006020830152604082019050919050565b600061293e601f83612d74565b91507f45524332303a206d696e7420746f20746865207a65726f2061646472657373006000830152602082019050919050565b61297a81612eb8565b82525050565b61298981612ef2565b82525050565b61299881612efc565b82525050565b60006129aa8284612271565b915081905092915050565b60006129c08261278b565b9150819050919050565b60006020820190506129df6000830184612253565b92915050565b60006040820190506129fa6000830185612253565b612a076020830184612980565b9392505050565b6000602082019050612a236000830184612262565b92915050565b60006020820190508181036000830152612a4381846122a2565b905092915050565b60006020820190508181036000830152612a64816122db565b9050919050565b60006020820190508181036000830152612a8481612341565b9050919050565b60006020820190508181036000830152612aa4816123a7565b9050919050565b60006020820190508181036000830152612ac48161240d565b9050919050565b60006020820190508181036000830152612ae481612473565b9050919050565b60006020820190508181036000830152612b04816124d9565b9050919050565b60006020820190508181036000830152612b2481612519565b9050919050565b60006020820190508181036000830152612b4481612559565b9050919050565b60006020820190508181036000830152612b6481612599565b9050919050565b60006020820190508181036000830152612b84816125ff565b9050919050565b60006020820190508181036000830152612ba48161263f565b9050919050565b60006020820190508181036000830152612bc4816126a5565b9050919050565b60006020820190508181036000830152612be4816126e5565b9050919050565b60006020820190508181036000830152612c048161274b565b9050919050565b60006020820190508181036000830152612c24816127a5565b9050919050565b60006020820190508181036000830152612c448161280b565b9050919050565b60006020820190508181036000830152612c648161284b565b9050919050565b60006020820190508181036000830152612c848161288b565b9050919050565b60006020820190508181036000830152612ca4816128cb565b9050919050565b60006020820190508181036000830152612cc481612931565b9050919050565b6000604082019050612ce06000830185612971565b612ced6020830184612971565b9392505050565b6000602082019050612d096000830184612980565b92915050565b6000604082019050612d246000830185612980565b612d316020830184612980565b9392505050565b6000602082019050612d4d600083018461298f565b92915050565b600081519050919050565b600081519050919050565b600081905092915050565b600082825260208201905092915050565b6000612d9082612ef2565b9150612d9b83612ef2565b9250827fffffffffffffffffffffffffffffffffffffffffffffffffffffffffffffffff03821115612dd057612dcf612f6e565b5b828201905092915050565b6000612de682612ef2565b9150612df183612ef2565b925082612e0157612e00612f9d565b5b828204905092915050565b6000612e1782612ef2565b9150612e2283612ef2565b9250817fffffffffffffffffffffffffffffffffffffffffffffffffffffffffffffffff0483118215151615612e5b57612e5a612f6e565b5b828202905092915050565b6000612e7182612ef2565b9150612e7c83612ef2565b925082821015612e8f57612e8e612f6e565b5b828203905092915050565b6000612ea582612ed2565b9050919050565b60008115159050919050565b60006dffffffffffffffffffffffffffff82169050919050565b600073ffffffffffffffffffffffffffffffffffffffff82169050919050565b6000819050919050565b600060ff82169050919050565b60005b83811015612f27578082015181840152602081019050612f0c565b83811115612f36576000848401525b50505050565b60006002820490506001821680612f5457607f821691505b60208210811415612f6857612f67612fcc565b5b50919050565b7f4e487b7100000000000000000000000000000000000000000000000000000000600052601160045260246000fd5b7f4e487b7100000000000000000000000000000000000000000000000000000000600052601260045260246000fd5b7f4e487b7100000000000000000000000000000000000000000000000000000000600052602260045260246000fd5b6000601f19601f8301169050919050565b61301581612e9a565b811461302057600080fd5b50565b61302c81612eac565b811461303757600080fd5b50565b61304381612ef2565b811461304e57600080fd5b5056fea2646970667358221220b397e6edd24b6119c2143f6d9efdd1673842084b3ef64513187969fc7628599564736f6c63430008000033",
  "linkReferences": {},
  "deployedLinkReferences": {}
}