{
  "_format": "hh-sol-artifact-1",
  "contractName": "Pool",
  "sourceName": "contracts/Pool.sol",
  "abi": [
    {
      "inputs": [],
      "stateMutability": "nonpayable",
      "type": "constructor"
    },
    {
      "anonymous": false,
      "inputs": [
        {
          "indexed": true,
          "internalType": "address",
          "name": "owner",
          "type": "address"
        },
        {
          "indexed": true,
          "internalType": "address",
          "name": "spender",
          "type": "address"
        },
        {
          "indexed": false,
          "internalType": "uint256",
          "name": "value",
          "type": "uint256"
        }
      ],
      "name": "Approval",
      "type": "event"
    },
    {
      "anonymous": false,
      "inputs": [
        {
          "indexed": true,
          "internalType": "address",
          "name": "sender",
          "type": "address"
        },
        {
          "indexed": false,
          "internalType": "uint256",
          "name": "amount0",
          "type": "uint256"
        },
        {
          "indexed": false,
          "internalType": "uint256",
          "name": "amount1",
          "type": "uint256"
        },
        {
          "indexed": true,
          "internalType": "address",
          "name": "to",
          "type": "address"
        }
      ],
      "name": "Burn",
      "type": "event"
    },
    {
      "anonymous": false,
      "inputs": [
        {
          "indexed": true,
          "internalType": "address",
          "name": "sender",
          "type": "address"
        },
        {
          "indexed": false,
          "internalType": "uint256",
          "name": "amount0",
          "type": "uint256"
        },
        {
          "indexed": false,
          "internalType": "uint256",
          "name": "amount1",
          "type": "uint256"
        }
      ],
      "name": "Mint",
      "type": "event"
    },
    {
      "anonymous": false,
      "inputs": [
        {
          "indexed": false,
          "internalType": "uint112",
          "name": "reserve0",
          "type": "uint112"
        },
        {
          "indexed": false,
          "internalType": "uint112",
          "name": "reserve1",
          "type": "uint112"
        }
      ],
      "name": "Sync",
      "type": "event"
    },
    {
      "anonymous": false,
      "inputs": [
        {
          "indexed": true,
          "internalType": "address",
          "name": "from",
          "type": "address"
        },
        {
          "indexed": true,
          "internalType": "address",
          "name": "to",
          "type": "address"
        },
        {
          "indexed": false,
          "internalType": "uint256",
          "name": "value",
          "type": "uint256"
        }
      ],
      "name": "Transfer",
      "type": "event"
    },
    {
      "inputs": [],
      "name": "MINIMUM_LIQUIDITY",
      "outputs": [
        {
          "internalType": "uint256",
          "name": "",
          "type": "uint256"
        }
      ],
      "stateMutability": "view",
      "type": "function"
    },
    {
      "inputs": [
        {
          "internalType": "address",
          "name": "owner",
          "type": "address"
        },
        {
          "internalType": "address",
          "name": "spender",
          "type": "address"
        }
      ],
      "name": "allowance",
      "outputs": [
        {
          "internalType": "uint256",
          "name": "",
          "type": "uint256"
        }
      ],
      "stateMutability": "view",
      "type": "function"
    },
    {
      "inputs": [
        {
          "internalType": "address",
          "name": "spender",
          "type": "address"
        },
        {
          "internalType": "uint256",
          "name": "amount",
          "type": "uint256"
        }
      ],
      "name": "approve",
      "outputs": [
        {
          "internalType": "bool",
          "name": "",
          "type": "bool"
        }
      ],
      "stateMutability": "nonpayable",
      "type": "function"
    },
    {
      "inputs": [
        {
          "internalType": "address",
          "name": "account",
          "type": "address"
        }
      ],
      "name": "balanceOf",
      "outputs": [
        {
          "internalType": "uint256",
          "name": "",
          "type": "uint256"
        }
      ],
      "stateMutability": "view",
      "type": "function"
    },
    {
      "inputs": [
        {
          "internalType": "address",
          "name": "to",
          "type": "address"
        }
      ],
      "name": "burn",
      "outputs": [
        {
          "internalType": "uint256",
          "name": "amount0",
          "type": "uint256"
        },
        {
          "internalType": "uint256",
          "name": "amount1",
          "type": "uint256"
        }
      ],
      "stateMutability": "nonpayable",
      "type": "function"
    },
    {
      "inputs": [],
      "name": "decimals",
      "outputs": [
        {
          "internalType": "uint8",
          "name": "",
          "type": "uint8"
        }
      ],
      "stateMutability": "view",
      "type": "function"
    },
    {
      "inputs": [
        {
          "internalType": "address",
          "name": "spender",
          "type": "address"
        },
        {
          "internalType": "uint256",
          "name": "subtractedValue",
          "type": "uint256"
        }
      ],
      "name": "decreaseAllowance",
      "outputs": [
        {
          "internalType": "bool",
          "name": "",
          "type": "bool"
        }
      ],
      "stateMutability": "nonpayable",
      "type": "function"
    },
    {
      "inputs": [],
      "name": "getReserves",
      "outputs": [
        {
          "internalType": "uint112",
          "name": "_reserve0",
          "type": "uint112"
        },
        {
          "internalType": "uint112",
          "name": "_reserve1",
          "type": "uint112"
        }
      ],
      "stateMutability": "view",
      "type": "function"
    },
    {
      "inputs": [
        {
          "internalType": "address",
          "name": "spender",
          "type": "address"
        },
        {
          "internalType": "uint256",
          "name": "addedValue",
          "type": "uint256"
        }
      ],
      "name": "increaseAllowance",
      "outputs": [
        {
          "internalType": "bool",
          "name": "",
          "type": "bool"
        }
      ],
      "stateMutability": "nonpayable",
      "type": "function"
    },
    {
      "inputs": [
        {
          "internalType": "address",
          "name": "_spaceCoin",
          "type": "address"
        },
        {
          "internalType": "address",
          "name": "_spaceICO",
          "type": "address"
        }
      ],
      "name": "initialize",
      "outputs": [],
      "stateMutability": "nonpayable",
      "type": "function"
    },
    {
      "inputs": [
        {
          "internalType": "address",
          "name": "to",
          "type": "address"
        }
      ],
      "name": "mint",
      "outputs": [
        {
          "internalType": "uint256",
          "name": "liquidity",
          "type": "uint256"
        }
      ],
      "stateMutability": "nonpayable",
      "type": "function"
    },
    {
      "inputs": [],
      "name": "name",
      "outputs": [
        {
          "internalType": "string",
          "name": "",
          "type": "string"
        }
      ],
      "stateMutability": "view",
      "type": "function"
    },
    {
      "inputs": [],
      "name": "spaceCoin",
      "outputs": [
        {
          "internalType": "address",
          "name": "",
          "type": "address"
        }
      ],
      "stateMutability": "view",
      "type": "function"
    },
    {
      "inputs": [],
      "name": "spaceICO",
      "outputs": [
        {
          "internalType": "address",
          "name": "",
          "type": "address"
        }
      ],
      "stateMutability": "view",
      "type": "function"
    },
    {
      "inputs": [
        {
          "internalType": "uint256",
          "name": "amountOut",
          "type": "uint256"
        },
        {
          "internalType": "address",
          "name": "to",
          "type": "address"
        },
        {
          "internalType": "uint256",
          "name": "value",
          "type": "uint256"
        }
      ],
      "name": "swap",
      "outputs": [],
      "stateMutability": "nonpayable",
      "type": "function"
    },
    {
      "inputs": [],
      "name": "symbol",
      "outputs": [
        {
          "internalType": "string",
          "name": "",
          "type": "string"
        }
      ],
      "stateMutability": "view",
      "type": "function"
    },
    {
      "inputs": [],
      "name": "totalSupply",
      "outputs": [
        {
          "internalType": "uint256",
          "name": "",
          "type": "uint256"
        }
      ],
      "stateMutability": "view",
      "type": "function"
    },
    {
      "inputs": [
        {
          "internalType": "address",
          "name": "recipient",
          "type": "address"
        },
        {
          "internalType": "uint256",
          "name": "amount",
          "type": "uint256"
        }
      ],
      "name": "transfer",
      "outputs": [
        {
          "internalType": "bool",
          "name": "",
          "type": "bool"
        }
      ],
      "stateMutability": "nonpayable",
      "type": "function"
    },
    {
      "inputs": [
        {
          "internalType": "address",
          "name": "sender",
          "type": "address"
        },
        {
          "internalType": "address",
          "name": "recipient",
          "type": "address"
        },
        {
          "internalType": "uint256",
          "name": "amount",
          "type": "uint256"
        }
      ],
      "name": "transferFrom",
      "outputs": [
        {
          "internalType": "bool",
          "name": "",
          "type": "bool"
        }
      ],
      "stateMutability": "nonpayable",
      "type": "function"
    },
    {
      "stateMutability": "payable",
      "type": "receive"
    }
  ],
  "bytecode": "0x60806040523480156200001157600080fd5b506040518060400160405280600e81526020017f5370616365204c5020546f6b656e0000000000000000000000000000000000008152506040518060400160405280600581526020017f5350434c50000000000000000000000000000000000000000000000000000000815250816003908051906020019062000096929190620000b8565b508060049080519060200190620000af929190620000b8565b505050620001cd565b828054620000c69062000168565b90600052602060002090601f016020900481019282620000ea576000855562000136565b82601f106200010557805160ff191683800117855562000136565b8280016001018555821562000136579182015b828111156200013557825182559160200191906001019062000118565b5b50905062000145919062000149565b5090565b5b80821115620001645760008160009055506001016200014a565b5090565b600060028204905060018216806200018157607f821691505b602082108114156200019857620001976200019e565b5b50919050565b7f4e487b7100000000000000000000000000000000000000000000000000000000600052602260045260246000fd5b61310880620001dd6000396000f3fe6080604052600436106101185760003560e01c80636a627842116100a0578063a9059cbb11610064578063a9059cbb146103fa578063ba9a7a5614610437578063bd33487514610462578063dd62ed3e1461048d578063e48575d4146104ca5761011f565b80636a627842146102da57806370a082311461031757806389afcb441461035457806395d89b4114610392578063a457c2d7146103bd5761011f565b806323b872dd116100e757806323b872dd146101e3578063313ce56714610220578063395093511461024b5780634326434914610288578063485cc955146102b15761011f565b806306fdde03146101245780630902f1ac1461014f578063095ea7b31461017b57806318160ddd146101b85761011f565b3661011f57005b600080fd5b34801561013057600080fd5b506101396104f5565b6040516101469190612aaa565b60405180910390f35b34801561015b57600080fd5b50610164610587565b604051610172929190612d4c565b60405180910390f35b34801561018757600080fd5b506101a2600480360381019061019d91906121f7565b6105cc565b6040516101af9190612a8f565b60405180910390f35b3480156101c457600080fd5b506101cd6105ea565b6040516101da9190612d75565b60405180910390f35b3480156101ef57600080fd5b5061020a600480360381019061020591906121a8565b6105f4565b6040516102179190612a8f565b60405180910390f35b34801561022c57600080fd5b506102356106ec565b6040516102429190612db9565b60405180910390f35b34801561025757600080fd5b50610272600480360381019061026d91906121f7565b6106f5565b60405161027f9190612a8f565b60405180910390f35b34801561029457600080fd5b506102af60048036038101906102aa9190612285565b6107a1565b005b3480156102bd57600080fd5b506102d860048036038101906102d3919061216c565b6109f5565b005b3480156102e657600080fd5b5061030160048036038101906102fc9190612143565b610b0c565b60405161030e9190612d75565b60405180910390f35b34801561032357600080fd5b5061033e60048036038101906103399190612143565b610d5a565b60405161034b9190612d75565b60405180910390f35b34801561036057600080fd5b5061037b60048036038101906103769190612143565b610da2565b604051610389929190612d90565b60405180910390f35b34801561039e57600080fd5b506103a7611107565b6040516103b49190612aaa565b60405180910390f35b3480156103c957600080fd5b506103e460048036038101906103df91906121f7565b611199565b6040516103f19190612a8f565b60405180910390f35b34801561040657600080fd5b50610421600480360381019061041c91906121f7565b611284565b60405161042e9190612a8f565b60405180910390f35b34801561044357600080fd5b5061044c6112a2565b6040516104599190612d75565b60405180910390f35b34801561046e57600080fd5b506104776112a8565b6040516104849190612a4b565b60405180910390f35b34801561049957600080fd5b506104b460048036038101906104af919061216c565b6112ce565b6040516104c19190612d75565b60405180910390f35b3480156104d657600080fd5b506104df611355565b6040516104ec9190612a4b565b60405180910390f35b60606003805461050490612fbd565b80601f016020809104026020016040519081016040528092919081815260200182805461053090612fbd565b801561057d5780601f106105525761010080835404028352916020019161057d565b820191906000526020600020905b81548152906001019060200180831161056057829003601f168201915b5050505050905090565b600080600760009054906101000a90046dffffffffffffffffffffffffffff1691506007600e9054906101000a90046dffffffffffffffffffffffffffff1690509091565b60006105e06105d961137b565b8484611383565b6001905092915050565b6000600254905090565b600061060184848461154e565b6000600160008673ffffffffffffffffffffffffffffffffffffffff1673ffffffffffffffffffffffffffffffffffffffff168152602001908152602001600020600061064c61137b565b73ffffffffffffffffffffffffffffffffffffffff1673ffffffffffffffffffffffffffffffffffffffff168152602001908152602001600020549050828110156106cc576040517f08c379a00000000000000000000000000000000000000000000000000000000081526004016106c390612bcc565b60405180910390fd5b6106e0856106d861137b565b858403611383565b60019150509392505050565b60006012905090565b600061079761070261137b565b84846001600061071061137b565b73ffffffffffffffffffffffffffffffffffffffff1673ffffffffffffffffffffffffffffffffffffffff16815260200190815260200160002060008873ffffffffffffffffffffffffffffffffffffffff1673ffffffffffffffffffffffffffffffffffffffff168152602001908152602001600020546107929190612e06565b611383565b6001905092915050565b600083116107e4576040517f08c379a00000000000000000000000000000000000000000000000000000000081526004016107db90612c6c565b60405180910390fd5b600080821115610800576107f6610587565b508091505061080f565b610808610587565b9050809150505b806dffffffffffffffffffffffffffff168410610861576040517f08c379a000000000000000000000000000000000000000000000000000000000815260040161085890612cec565b60405180910390fd5b6000806000600560009054906101000a900473ffffffffffffffffffffffffffffffffffffffff1690508073ffffffffffffffffffffffffffffffffffffffff168673ffffffffffffffffffffffffffffffffffffffff1614156108fa576040517f08c379a00000000000000000000000000000000000000000000000000000000081526004016108f190612b8c565b60405180910390fd5b600085111561091d576000871115610918576109178187896117cf565b5b610932565b6000871115610931576109308688611959565b5b5b600560009054906101000a900473ffffffffffffffffffffffffffffffffffffffff1673ffffffffffffffffffffffffffffffffffffffff166370a08231306040518263ffffffff1660e01b815260040161098d9190612a4b565b60206040518083038186803b1580156109a557600080fd5b505afa1580156109b9573d6000803e3d6000fd5b505050506040513d601f19601f820116820180604052508101906109dd919061225c565b9250479150506109ed8282611a7f565b505050505050565b600073ffffffffffffffffffffffffffffffffffffffff16600560009054906101000a900473ffffffffffffffffffffffffffffffffffffffff1673ffffffffffffffffffffffffffffffffffffffff1614610a86576040517f08c379a0000000000000000000000000000000000000000000000000000000008152600401610a7d90612c2c565b60405180910390fd5b81600560006101000a81548173ffffffffffffffffffffffffffffffffffffffff021916908373ffffffffffffffffffffffffffffffffffffffff16021790555080600660006101000a81548173ffffffffffffffffffffffffffffffffffffffff021916908373ffffffffffffffffffffffffffffffffffffffff1602179055505050565b6000806000610b19610587565b915091506000600560009054906101000a900473ffffffffffffffffffffffffffffffffffffffff1673ffffffffffffffffffffffffffffffffffffffff166370a08231306040518263ffffffff1660e01b8152600401610b7a9190612a4b565b60206040518083038186803b158015610b9257600080fd5b505afa158015610ba6573d6000803e3d6000fd5b505050506040513d601f19601f82011682018060405250810190610bca919061225c565b905060004790506000846dffffffffffffffffffffffffffff1683610bef9190612ee7565b90506000846dffffffffffffffffffffffffffff1683610c0f9190612ee7565b90506000610c1b6105ea565b90506000811415610c4e576103e8610c3d8385610c389190612e8d565b611bc9565b610c479190612ee7565b9750610ca7565b610ca4876dffffffffffffffffffffffffffff168285610c6e9190612e8d565b610c789190612e5c565b876dffffffffffffffffffffffffffff168385610c959190612e8d565b610c9f9190612e5c565b611d95565b97505b60008811610cea576040517f08c379a0000000000000000000000000000000000000000000000000000000008152600401610ce190612b6c565b60405180910390fd5b610cf48989611dae565b610cfe8585611a7f565b3373ffffffffffffffffffffffffffffffffffffffff167f4c209b5fc8ad50758f13e2e1088ba56a560dff690a1c6fef26394f4c03821c4f8484604051610d46929190612d90565b60405180910390a250505050505050919050565b60008060008373ffffffffffffffffffffffffffffffffffffffff1673ffffffffffffffffffffffffffffffffffffffff168152602001908152602001600020549050919050565b6000806000600560009054906101000a900473ffffffffffffffffffffffffffffffffffffffff1690506000600560009054906101000a900473ffffffffffffffffffffffffffffffffffffffff1673ffffffffffffffffffffffffffffffffffffffff166370a08231306040518263ffffffff1660e01b8152600401610e299190612a4b565b60206040518083038186803b158015610e4157600080fd5b505afa158015610e55573d6000803e3d6000fd5b505050506040513d601f19601f82011682018060405250810190610e79919061225c565b905060004790506000610e8b30610d5a565b90506000610e976105ea565b9050808483610ea69190612e8d565b610eb09190612e5c565b9650808383610ebf9190612e8d565b610ec99190612e5c565b9550600087118015610edb5750600086115b610f1a576040517f08c379a0000000000000000000000000000000000000000000000000000000008152600401610f1190612bec565b60405180910390fd5b610f243083611f0e565b610f2f8589896117cf565b60008873ffffffffffffffffffffffffffffffffffffffff1687604051610f5590612a36565b60006040518083038185875af1925050503d8060008114610f92576040519150601f19603f3d011682016040523d82523d6000602084013e610f97565b606091505b5050905080610fdb576040517f08c379a0000000000000000000000000000000000000000000000000000000008152600401610fd290612bac565b60405180910390fd5b479450600560009054906101000a900473ffffffffffffffffffffffffffffffffffffffff1673ffffffffffffffffffffffffffffffffffffffff166370a08231306040518263ffffffff1660e01b81526004016110399190612a4b565b60206040518083038186803b15801561105157600080fd5b505afa158015611065573d6000803e3d6000fd5b505050506040513d601f19601f82011682018060405250810190611089919061225c565b93506110958585611a7f565b8873ffffffffffffffffffffffffffffffffffffffff163373ffffffffffffffffffffffffffffffffffffffff167fdccd412f0b1252819cb1fd330b93224ca42612892bb3f4f789976e6d819364968a8a6040516110f4929190612d90565b60405180910390a3505050505050915091565b60606004805461111690612fbd565b80601f016020809104026020016040519081016040528092919081815260200182805461114290612fbd565b801561118f5780601f106111645761010080835404028352916020019161118f565b820191906000526020600020905b81548152906001019060200180831161117257829003601f168201915b5050505050905090565b600080600160006111a861137b565b73ffffffffffffffffffffffffffffffffffffffff1673ffffffffffffffffffffffffffffffffffffffff16815260200190815260200160002060008573ffffffffffffffffffffffffffffffffffffffff1673ffffffffffffffffffffffffffffffffffffffff16815260200190815260200160002054905082811015611265576040517f08c379a000000000000000000000000000000000000000000000000000000000815260040161125c90612d0c565b60405180910390fd5b61127961127061137b565b85858403611383565b600191505092915050565b600061129861129161137b565b848461154e565b6001905092915050565b6103e881565b600660009054906101000a900473ffffffffffffffffffffffffffffffffffffffff1681565b6000600160008473ffffffffffffffffffffffffffffffffffffffff1673ffffffffffffffffffffffffffffffffffffffff16815260200190815260200160002060008373ffffffffffffffffffffffffffffffffffffffff1673ffffffffffffffffffffffffffffffffffffffff16815260200190815260200160002054905092915050565b600560009054906101000a900473ffffffffffffffffffffffffffffffffffffffff1681565b600033905090565b600073ffffffffffffffffffffffffffffffffffffffff168373ffffffffffffffffffffffffffffffffffffffff1614156113f3576040517f08c379a00000000000000000000000000000000000000000000000000000000081526004016113ea90612c8c565b60405180910390fd5b600073ffffffffffffffffffffffffffffffffffffffff168273ffffffffffffffffffffffffffffffffffffffff161415611463576040517f08c379a000000000000000000000000000000000000000000000000000000000815260040161145a90612b0c565b60405180910390fd5b80600160008573ffffffffffffffffffffffffffffffffffffffff1673ffffffffffffffffffffffffffffffffffffffff16815260200190815260200160002060008473ffffffffffffffffffffffffffffffffffffffff1673ffffffffffffffffffffffffffffffffffffffff168152602001908152602001600020819055508173ffffffffffffffffffffffffffffffffffffffff168373ffffffffffffffffffffffffffffffffffffffff167f8c5be1e5ebec7d5bd14f71427d1e84f3dd0314c0f7b2291e5b200ac8c7c3b925836040516115419190612d75565b60405180910390a3505050565b600073ffffffffffffffffffffffffffffffffffffffff168373ffffffffffffffffffffffffffffffffffffffff1614156115be576040517f08c379a00000000000000000000000000000000000000000000000000000000081526004016115b590612c4c565b60405180910390fd5b600073ffffffffffffffffffffffffffffffffffffffff168273ffffffffffffffffffffffffffffffffffffffff16141561162e576040517f08c379a000000000000000000000000000000000000000000000000000000000815260040161162590612acc565b60405180910390fd5b6116398383836120e5565b60008060008573ffffffffffffffffffffffffffffffffffffffff1673ffffffffffffffffffffffffffffffffffffffff168152602001908152602001600020549050818110156116bf576040517f08c379a00000000000000000000000000000000000000000000000000000000081526004016116b690612b2c565b60405180910390fd5b8181036000808673ffffffffffffffffffffffffffffffffffffffff1673ffffffffffffffffffffffffffffffffffffffff16815260200190815260200160002081905550816000808573ffffffffffffffffffffffffffffffffffffffff1673ffffffffffffffffffffffffffffffffffffffff16815260200190815260200160002060008282546117529190612e06565b925050819055508273ffffffffffffffffffffffffffffffffffffffff168473ffffffffffffffffffffffffffffffffffffffff167fddf252ad1be2c89b69c2b068fc378daa952ba7f163c4a11628f55a4df523b3ef846040516117b69190612d75565b60405180910390a36117c98484846120ea565b50505050565b6000808473ffffffffffffffffffffffffffffffffffffffff166040518060400160405280601981526020017f7472616e7366657228616464726573732c75696e743235362900000000000000815250805190602001208585604051602401611839929190612a66565b604051602081830303815290604052907bffffffffffffffffffffffffffffffffffffffffffffffffffffffff19166020820180517bffffffffffffffffffffffffffffffffffffffffffffffffffffffff83818316178352505050506040516118a39190612a1f565b6000604051808303816000865af19150503d80600081146118e0576040519150601f19603f3d011682016040523d82523d6000602084013e6118e5565b606091505b509150915081801561191357506000815114806119125750808060200190518101906119119190612233565b5b5b611952576040517f08c379a000000000000000000000000000000000000000000000000000000000815260040161194990612ccc565b60405180910390fd5b5050505050565b60008273ffffffffffffffffffffffffffffffffffffffff1682600067ffffffffffffffff8111156119b4577f4e487b7100000000000000000000000000000000000000000000000000000000600052604160045260246000fd5b6040519080825280601f01601f1916602001820160405280156119e65781602001600182028036833780820191505090505b506040516119f49190612a1f565b60006040518083038185875af1925050503d8060008114611a31576040519150601f19603f3d011682016040523d82523d6000602084013e611a36565b606091505b5050905080611a7a576040517f08c379a0000000000000000000000000000000000000000000000000000000008152600401611a7190612b4c565b60405180910390fd5b505050565b6dffffffffffffffffffffffffffff8211158015611aab57506dffffffffffffffffffffffffffff8111155b611aea576040517f08c379a0000000000000000000000000000000000000000000000000000000008152600401611ae190612cac565b60405180910390fd5b81600760006101000a8154816dffffffffffffffffffffffffffff02191690836dffffffffffffffffffffffffffff160217905550806007600e6101000a8154816dffffffffffffffffffffffffffff02191690836dffffffffffffffffffffffffffff1602179055507f1c411e9a96e071241c2f21f7726b17ae89e3cab4c78be50e062b03a9fffbbad1600760009054906101000a90046dffffffffffffffffffffffffffff166007600e9054906101000a90046dffffffffffffffffffffffffffff16604051611bbd929190612d4c565b60405180910390a15050565b600080821415611bdc5760009050611d90565b60008290506000600190507001000000000000000000000000000000008210611c0e57608082901c9150604081901b90505b680100000000000000008210611c2d57604082901c9150602081901b90505b6401000000008210611c4857602082901c9150601081901b90505b620100008210611c6157601082901c9150600881901b90505b6101008210611c7957600882901c9150600481901b90505b60108210611c9057600482901c9150600281901b90505b60088210611ca057600181901b90505b60018185611cae9190612e5c565b82611cb99190612e06565b901c905060018185611ccb9190612e5c565b82611cd69190612e06565b901c905060018185611ce89190612e5c565b82611cf39190612e06565b901c905060018185611d059190612e5c565b82611d109190612e06565b901c905060018185611d229190612e5c565b82611d2d9190612e06565b901c905060018185611d3f9190612e5c565b82611d4a9190612e06565b901c905060018185611d5c9190612e5c565b82611d679190612e06565b901c905060008185611d799190612e5c565b9050808210611d885780611d8a565b815b93505050505b919050565b6000818310611da45781611da6565b825b905092915050565b600073ffffffffffffffffffffffffffffffffffffffff168273ffffffffffffffffffffffffffffffffffffffff161415611e1e576040517f08c379a0000000000000000000000000000000000000000000000000000000008152600401611e1590612d2c565b60405180910390fd5b611e2a600083836120e5565b8060026000828254611e3c9190612e06565b92505081905550806000808473ffffffffffffffffffffffffffffffffffffffff1673ffffffffffffffffffffffffffffffffffffffff1681526020019081526020016000206000828254611e919190612e06565b925050819055508173ffffffffffffffffffffffffffffffffffffffff16600073ffffffffffffffffffffffffffffffffffffffff167fddf252ad1be2c89b69c2b068fc378daa952ba7f163c4a11628f55a4df523b3ef83604051611ef69190612d75565b60405180910390a3611f0a600083836120ea565b5050565b600073ffffffffffffffffffffffffffffffffffffffff168273ffffffffffffffffffffffffffffffffffffffff161415611f7e576040517f08c379a0000000000000000000000000000000000000000000000000000000008152600401611f7590612c0c565b60405180910390fd5b611f8a826000836120e5565b60008060008473ffffffffffffffffffffffffffffffffffffffff1673ffffffffffffffffffffffffffffffffffffffff16815260200190815260200160002054905081811015612010576040517f08c379a000000000000000000000000000000000000000000000000000000000815260040161200790612aec565b60405180910390fd5b8181036000808573ffffffffffffffffffffffffffffffffffffffff1673ffffffffffffffffffffffffffffffffffffffff1681526020019081526020016000208190555081600260008282546120679190612ee7565b92505081905550600073ffffffffffffffffffffffffffffffffffffffff168373ffffffffffffffffffffffffffffffffffffffff167fddf252ad1be2c89b69c2b068fc378daa952ba7f163c4a11628f55a4df523b3ef846040516120cc9190612d75565b60405180910390a36120e0836000846120ea565b505050565b505050565b505050565b6000813590506120fe8161308d565b92915050565b600081519050612113816130a4565b92915050565b600081359050612128816130bb565b92915050565b60008151905061213d816130bb565b92915050565b60006020828403121561215557600080fd5b6000612163848285016120ef565b91505092915050565b6000806040838503121561217f57600080fd5b600061218d858286016120ef565b925050602061219e858286016120ef565b9150509250929050565b6000806000606084860312156121bd57600080fd5b60006121cb868287016120ef565b93505060206121dc868287016120ef565b92505060406121ed86828701612119565b9150509250925092565b6000806040838503121561220a57600080fd5b6000612218858286016120ef565b925050602061222985828601612119565b9150509250929050565b60006020828403121561224557600080fd5b600061225384828501612104565b91505092915050565b60006020828403121561226e57600080fd5b600061227c8482850161212e565b91505092915050565b60008060006060848603121561229a57600080fd5b60006122a886828701612119565b93505060206122b9868287016120ef565b92505060406122ca86828701612119565b9150509250925092565b6122dd81612f1b565b82525050565b6122ec81612f2d565b82525050565b60006122fd82612dd4565b6123078185612dea565b9350612317818560208601612f8a565b80840191505092915050565b600061232e82612ddf565b6123388185612df5565b9350612348818560208601612f8a565b6123518161307c565b840191505092915050565b6000612369602383612df5565b91507f45524332303a207472616e7366657220746f20746865207a65726f206164647260008301527f65737300000000000000000000000000000000000000000000000000000000006020830152604082019050919050565b60006123cf602283612df5565b91507f45524332303a206275726e20616d6f756e7420657863656564732062616c616e60008301527f63650000000000000000000000000000000000000000000000000000000000006020830152604082019050919050565b6000612435602283612df5565b91507f45524332303a20617070726f766520746f20746865207a65726f20616464726560008301527f73730000000000000000000000000000000000000000000000000000000000006020830152604082019050919050565b600061249b602683612df5565b91507f45524332303a207472616e7366657220616d6f756e742065786365656473206260008301527f616c616e636500000000000000000000000000000000000000000000000000006020830152604082019050919050565b6000612501603483612df5565b91507f5472616e7366657248656c7065723a3a736166655472616e736665724554483a60008301527f20455448207472616e73666572206661696c65640000000000000000000000006020830152604082019050919050565b6000612567601d83612df5565b91507f494e53554646494349454e545f4c49515549444954595f4d494e5445440000006000830152602082019050919050565b60006125a7600a83612df5565b91507f494e56414c49445f544f000000000000000000000000000000000000000000006000830152602082019050919050565b60006125e7600f83612df5565b91507f57495448445241575f4641494c454400000000000000000000000000000000006000830152602082019050919050565b6000612627602883612df5565b91507f45524332303a207472616e7366657220616d6f756e742065786365656473206160008301527f6c6c6f77616e63650000000000000000000000000000000000000000000000006020830152604082019050919050565b600061268d601d83612df5565b91507f494e53554646494349454e545f4c49515549444954595f4255524e45440000006000830152602082019050919050565b60006126cd602183612df5565b91507f45524332303a206275726e2066726f6d20746865207a65726f2061646472657360008301527f73000000000000000000000000000000000000000000000000000000000000006020830152604082019050919050565b6000612733600a83612df5565b91507f57524954455f4f4e4345000000000000000000000000000000000000000000006000830152602082019050919050565b6000612773602583612df5565b91507f45524332303a207472616e736665722066726f6d20746865207a65726f20616460008301527f64726573730000000000000000000000000000000000000000000000000000006020830152604082019050919050565b60006127d9601a83612df5565b91507f494e53554646494349454e545f4f55545055545f414d4f554e540000000000006000830152602082019050919050565b6000612819600083612dea565b9150600082019050919050565b6000612833602483612df5565b91507f45524332303a20617070726f76652066726f6d20746865207a65726f2061646460008301527f72657373000000000000000000000000000000000000000000000000000000006020830152604082019050919050565b6000612899600883612df5565b91507f4f564552464c4f570000000000000000000000000000000000000000000000006000830152602082019050919050565b60006128d9601a83612df5565b91507f556e697377617056323a205452414e534645525f4641494c45440000000000006000830152602082019050919050565b6000612919601683612df5565b91507f494e53554646494349454e545f4c4951554944495459000000000000000000006000830152602082019050919050565b6000612959602583612df5565b91507f45524332303a2064656372656173656420616c6c6f77616e63652062656c6f7760008301527f207a65726f0000000000000000000000000000000000000000000000000000006020830152604082019050919050565b60006129bf601f83612df5565b91507f45524332303a206d696e7420746f20746865207a65726f2061646472657373006000830152602082019050919050565b6129fb81612f39565b82525050565b612a0a81612f73565b82525050565b612a1981612f7d565b82525050565b6000612a2b82846122f2565b915081905092915050565b6000612a418261280c565b9150819050919050565b6000602082019050612a6060008301846122d4565b92915050565b6000604082019050612a7b60008301856122d4565b612a886020830184612a01565b9392505050565b6000602082019050612aa460008301846122e3565b92915050565b60006020820190508181036000830152612ac48184612323565b905092915050565b60006020820190508181036000830152612ae58161235c565b9050919050565b60006020820190508181036000830152612b05816123c2565b9050919050565b60006020820190508181036000830152612b2581612428565b9050919050565b60006020820190508181036000830152612b458161248e565b9050919050565b60006020820190508181036000830152612b65816124f4565b9050919050565b60006020820190508181036000830152612b858161255a565b9050919050565b60006020820190508181036000830152612ba58161259a565b9050919050565b60006020820190508181036000830152612bc5816125da565b9050919050565b60006020820190508181036000830152612be58161261a565b9050919050565b60006020820190508181036000830152612c0581612680565b9050919050565b60006020820190508181036000830152612c25816126c0565b9050919050565b60006020820190508181036000830152612c4581612726565b9050919050565b60006020820190508181036000830152612c6581612766565b9050919050565b60006020820190508181036000830152612c85816127cc565b9050919050565b60006020820190508181036000830152612ca581612826565b9050919050565b60006020820190508181036000830152612cc58161288c565b9050919050565b60006020820190508181036000830152612ce5816128cc565b9050919050565b60006020820190508181036000830152612d058161290c565b9050919050565b60006020820190508181036000830152612d258161294c565b9050919050565b60006020820190508181036000830152612d45816129b2565b9050919050565b6000604082019050612d6160008301856129f2565b612d6e60208301846129f2565b9392505050565b6000602082019050612d8a6000830184612a01565b92915050565b6000604082019050612da56000830185612a01565b612db26020830184612a01565b9392505050565b6000602082019050612dce6000830184612a10565b92915050565b600081519050919050565b600081519050919050565b600081905092915050565b600082825260208201905092915050565b6000612e1182612f73565b9150612e1c83612f73565b9250827fffffffffffffffffffffffffffffffffffffffffffffffffffffffffffffffff03821115612e5157612e50612fef565b5b828201905092915050565b6000612e6782612f73565b9150612e7283612f73565b925082612e8257612e8161301e565b5b828204905092915050565b6000612e9882612f73565b9150612ea383612f73565b9250817fffffffffffffffffffffffffffffffffffffffffffffffffffffffffffffffff0483118215151615612edc57612edb612fef565b5b828202905092915050565b6000612ef282612f73565b9150612efd83612f73565b925082821015612f1057612f0f612fef565b5b828203905092915050565b6000612f2682612f53565b9050919050565b60008115159050919050565b60006dffffffffffffffffffffffffffff82169050919050565b600073ffffffffffffffffffffffffffffffffffffffff82169050919050565b6000819050919050565b600060ff82169050919050565b60005b83811015612fa8578082015181840152602081019050612f8d565b83811115612fb7576000848401525b50505050565b60006002820490506001821680612fd557607f821691505b60208210811415612fe957612fe861304d565b5b50919050565b7f4e487b7100000000000000000000000000000000000000000000000000000000600052601160045260246000fd5b7f4e487b7100000000000000000000000000000000000000000000000000000000600052601260045260246000fd5b7f4e487b7100000000000000000000000000000000000000000000000000000000600052602260045260246000fd5b6000601f19601f8301169050919050565b61309681612f1b565b81146130a157600080fd5b50565b6130ad81612f2d565b81146130b857600080fd5b50565b6130c481612f73565b81146130cf57600080fd5b5056fea2646970667358221220ffaafef0237e8bc481f3186e392c99a4d3c38a7ba5744a6a0023ab1439f517fb64736f6c63430008000033",
  "linkReferences": {},
  "deployedLinkReferences": {}
}